{
  "contractName": "TicketCreation",
  "abi": [
    {
      "constant": true,
      "inputs": [
        {
          "name": "",
          "type": "uint256"
        }
      ],
      "name": "tickets",
      "outputs": [
        {
          "name": "eventName",
          "type": "string"
        },
        {
          "name": "description",
          "type": "string"
        },
        {
          "name": "available",
          "type": "bool"
        },
        {
          "name": "price",
          "type": "uint16"
        }
      ],
      "payable": false,
      "stateMutability": "view",
      "type": "function"
    },
    {
      "anonymous": false,
      "inputs": [
        {
          "indexed": true,
          "name": "userId",
          "type": "uint256"
        },
        {
          "indexed": true,
          "name": "firstName",
          "type": "string"
        },
        {
          "indexed": true,
          "name": "lastName",
          "type": "string"
        }
      ],
      "name": "NewAccount",
      "type": "event"
    },
    {
      "anonymous": false,
      "inputs": [
        {
          "indexed": true,
          "name": "ticketId",
          "type": "uint256"
        },
        {
          "indexed": true,
          "name": "eventName",
          "type": "string"
        },
        {
          "indexed": true,
          "name": "description",
          "type": "string"
        },
        {
          "indexed": false,
          "name": "available",
          "type": "bool"
        },
        {
          "indexed": false,
          "name": "price",
          "type": "uint16"
        }
      ],
      "name": "NewTicket",
      "type": "event"
    },
    {
      "constant": false,
      "inputs": [
        {
          "name": "_firstName",
          "type": "string"
        },
        {
          "name": "_lastName",
          "type": "string"
        }
      ],
      "name": "accountCreation",
      "outputs": [],
      "payable": false,
      "stateMutability": "nonpayable",
      "type": "function"
    },
    {
      "constant": false,
      "inputs": [
        {
          "name": "_eventName",
          "type": "string"
        },
        {
          "name": "_description",
          "type": "string"
        },
        {
          "name": "_price",
          "type": "uint16"
        }
      ],
      "name": "createTicket",
      "outputs": [],
      "payable": true,
      "stateMutability": "payable",
      "type": "function"
    }
  ],
  "bytecode": "0x608060405260046000806101000a81548161ffff021916908361ffff16021790555034801561002d57600080fd5b50610bde8061003d6000396000f3fe6080604052600436106100345760003560e01c8063451452fb1461003957806350b4471214610114578063fc7738601461024e575b600080fd5b34801561004557600080fd5b506101126004803603604081101561005c57600080fd5b810190808035906020019064010000000081111561007957600080fd5b82018360208201111561008b57600080fd5b803590602001918460018302840111640100000000831117156100ad57600080fd5b9091929391929390803590602001906401000000008111156100ce57600080fd5b8201836020820111156100e057600080fd5b8035906020019184600183028401116401000000008311171561010257600080fd5b909192939192939050505061032a565b005b34801561012057600080fd5b5061014d6004803603602081101561013757600080fd5b810190808035906020019092919050505061054d565b604051808060200180602001851515151581526020018461ffff1661ffff168152602001838103835287818151815260200191508051906020019080838360005b838110156101a957808201518184015260208101905061018e565b50505050905090810190601f1680156101d65780820380516001836020036101000a031916815260200191505b50838103825286818151815260200191508051906020019080838360005b8381101561020f5780820151818401526020810190506101f4565b50505050905090810190601f16801561023c5780820380516001836020036101000a031916815260200191505b50965050505050505060405180910390f35b6103286004803603606081101561026457600080fd5b810190808035906020019064010000000081111561028157600080fd5b82018360208201111561029357600080fd5b803590602001918460018302840111640100000000831117156102b557600080fd5b9091929391929390803590602001906401000000008111156102d657600080fd5b8201836020820111156102e857600080fd5b8035906020019184600183028401116401000000008311171561030a57600080fd5b9091929391929390803561ffff1690602001909291905050506106d5565b005b6000600160405180606001604052803373ffffffffffffffffffffffffffffffffffffffff16815260200187878080601f016020809104026020016040519081016040528093929190818152602001838380828437600081840152601f19601f82011690508083019250505050505050815260200185858080601f016020809104026020016040519081016040528093929190818152602001838380828437600081840152601f19601f820116905080830192505050505050508152509080600181540180825580915050906001820390600052602060002090600302016000909192909190915060008201518160000160006101000a81548173ffffffffffffffffffffffffffffffffffffffff021916908373ffffffffffffffffffffffffffffffffffffffff1602179055506020820151816001019080519060200190610475929190610aec565b506040820151816002019080519060200190610492929190610aec565b505050905080600360003373ffffffffffffffffffffffffffffffffffffffff1673ffffffffffffffffffffffffffffffffffffffff168152602001908152602001600020819055508282604051808383808284378083019250505092505050604051809103902085856040518083838082843780830192505050925050506040518091039020827fcf1b833fef0dd6469e0f14043729c162c22e5bb3f69e07c6140c37456936dfe660405160405180910390a45050505050565b6002818154811061055a57fe5b9060005260206000209060030201600091509050806000018054600181600116156101000203166002900480601f0160208091040260200160405190810160405280929190818152602001828054600181600116156101000203166002900480156106065780601f106105db57610100808354040283529160200191610606565b820191906000526020600020905b8154815290600101906020018083116105e957829003601f168201915b505050505090806001018054600181600116156101000203166002900480601f0160208091040260200160405190810160405280929190818152602001828054600181600116156101000203166002900480156106a45780601f10610679576101008083540402835291602001916106a4565b820191906000526020600020905b81548152906001019060200180831161068757829003601f168201915b5050505050908060020160009054906101000a900460ff16908060020160019054906101000a900461ffff16905084565b6000600360003373ffffffffffffffffffffffffffffffffffffffff1673ffffffffffffffffffffffffffffffffffffffff168152602001908152602001600020541161078a576040517f08c379a000000000000000000000000000000000000000000000000000000000815260040180806020018281038252601f8152602001807f506c656173652063726561746520616e206163636f756e742066697273742e0081525060200191505060405180910390fd5b61079381610a4d565b600060016002604051806080016040528089898080601f016020809104026020016040519081016040528093929190818152602001838380828437600081840152601f19601f82011690508083019250505050505050815260200187878080601f016020809104026020016040519081016040528093929190818152602001838380828437600081840152601f19601f8201169050808301925050505050505081526020016001151581526020018561ffff16815250908060018154018082558091505090600182039060005260206000209060030201600090919290919091506000820151816000019080519060200190610890929190610aec565b5060208201518160010190805190602001906108ad929190610aec565b5060408201518160020160006101000a81548160ff02191690831515021790555060608201518160020160016101000a81548161ffff021916908361ffff1602179055505050039050336004600083815260200190815260200160002060006101000a81548173ffffffffffffffffffffffffffffffffffffffff021916908373ffffffffffffffffffffffffffffffffffffffff160217905550600560003373ffffffffffffffffffffffffffffffffffffffff1673ffffffffffffffffffffffffffffffffffffffff168152602001908152602001600020600081819054906101000a900461ffff168092919060010191906101000a81548161ffff021916908361ffff160217905550508383604051808383808284378083019250505092505050604051809103902086866040518083838082843780830192505050925050506040518091039020827f6924bf0cc8a2846033b9edf2278bf346a9151e76d614a1e976939db8343d172d60018660405180831515151581526020018261ffff1661ffff1681526020019250505060405180910390a4505050505050565b60008060009054906101000a900461ffff1661ffff16670de0b6b3a76400008361ffff160267ffffffffffffffff1681610a8357fe5b0467ffffffffffffffff169050803414610ae8576040517f08c379a0000000000000000000000000000000000000000000000000000000008152600401808060200182810382526021815260200180610b926021913960400191505060405180910390fd5b5050565b828054600181600116156101000203166002900490600052602060002090601f016020900481019282601f10610b2d57805160ff1916838001178555610b5b565b82800160010185558215610b5b579182015b82811115610b5a578251825591602001919060010190610b3f565b5b509050610b689190610b6c565b5090565b610b8e91905b80821115610b8a576000816000905550600101610b72565b5090565b9056fe596f7572207374616b696e6720616d6f756e7420697320696e636f72726563742ea165627a7a723058201e1789a939c9c3dbeb97248b6373827e419195ec5fc83bb905709cf3bd4161130029",
  "source": "pragma solidity >=0.4.21 <0.6.0;\r\n\r\ncontract TicketCreation {\r\n\r\n  /* Emit events when new accounts and new tickets have been created */\r\n  event NewAccount(uint256 indexed userId, string indexed firstName, string indexed lastName);\r\n  event NewTicket(uint256 indexed ticketId, string indexed eventName, string indexed description, bool available, uint16 price);\r\n\r\n  /* Struct for User */\r\n  struct User {\r\n    address userAd;\r\n    string firstName;\r\n    string lastName;\r\n  }\r\n\r\n  /* Struct for Ticket, ticket ID is stored in a mapping below in ticketsToOwner */\r\n  struct Ticket {\r\n    string eventName;\r\n    string description;\r\n    bool available;\r\n    uint16 price;\r\n  }\r\n\r\n  /* Determines how much ether a seller should stake */\r\n  uint16 stakingFactor = 4;\r\n\r\n  User[] users; /* Array of Users */\r\n  Ticket[] public tickets; /* Array of Tickets */\r\n\r\n  /* Maps address to user ID */\r\n  mapping (address => uint256) adToUserId;\r\n  /* Maps ticket IDs to user addresses */\r\n  mapping (uint256 => address) ticketsToOwner;\r\n  /* Maps users to their number of tickets held */\r\n  mapping (address => uint16) ownerToQuantity;\r\n  /* Maps ticket IDs to approved buyers */\r\n  mapping (uint256 => address) approvedBuyers;\r\n\r\n  function staking(uint16 _price) internal {\r\n      uint256 stakeAmount = _price * 1 ether/stakingFactor;\r\n      require(msg.value == stakeAmount, \"Your staking amount is incorrect.\"); /* Requires seller to stake ether */\r\n  }\r\n\r\n  function accountCreation(string calldata _firstName, string calldata _lastName) external {\r\n    uint256 userId = users.push(User(msg.sender, _firstName, _lastName));\r\n    adToUserId[msg.sender] = userId;\r\n    emit NewAccount(userId, _firstName, _lastName); /* Event emitter */\r\n  }\r\n\r\n  function createTicket(string calldata _eventName, string calldata _description, uint16 _price) external payable {\r\n    require(adToUserId[msg.sender] > 0, \"Please create an account first.\"); /* Requires user to have an account */\r\n    staking(_price);\r\n    // uint256 stakeAmount = _price * 1 ether / stakingFactor;\r\n    //require(msg.value == stakeAmount, \"Your staking amount is incorrect.\"); /* Requires seller to stake ether */\r\n    uint256 ticketId = tickets.push(Ticket(_eventName, _description, true, _price))-1;\r\n    ticketsToOwner[ticketId] = msg.sender;\r\n    ownerToQuantity[msg.sender]++;\r\n    emit NewTicket(ticketId, _eventName, _description, true, _price); /* Event emitter */\r\n  }\r\n\r\n}",
  "sourcePath": "D:\\Ethereum practice\\Ticket-Exchange-Dapp\\contracts\\TicketCreation.sol",
  "compiler": {
    "name": "solc",
    "version": "0.5.8+commit.23d335f2.Emscripten.clang"
  },
  "schemaVersion": "3.0.11",
  "updatedAt": "2019-07-31T16:18:31.573Z",
  "devdoc": {
    "methods": {}
  },
  "userdoc": {
    "methods": {}
  }
}