{
  "contractName": "TicketTransfer",
  "abi": [
    {
      "constant": false,
      "inputs": [
        {
          "name": "_firstName",
          "type": "string"
        },
        {
          "name": "_lastName",
          "type": "string"
        }
      ],
      "name": "accountCreation",
      "outputs": [],
      "payable": false,
      "stateMutability": "nonpayable",
      "type": "function"
    },
    {
      "constant": true,
      "inputs": [
        {
          "name": "",
          "type": "uint256"
        }
      ],
      "name": "tickets",
      "outputs": [
        {
          "name": "eventName",
          "type": "string"
        },
        {
          "name": "description",
          "type": "string"
        },
        {
          "name": "price",
          "type": "uint16"
        }
      ],
      "payable": false,
      "stateMutability": "view",
      "type": "function"
    },
    {
      "constant": false,
      "inputs": [
        {
          "name": "_eventName",
          "type": "string"
        },
        {
          "name": "_description",
          "type": "string"
        },
        {
          "name": "_price",
          "type": "uint16"
        }
      ],
      "name": "createTicket",
      "outputs": [],
      "payable": false,
      "stateMutability": "nonpayable",
      "type": "function"
    },
    {
      "anonymous": false,
      "inputs": [
        {
          "indexed": true,
          "name": "_from",
          "type": "address"
        },
        {
          "indexed": true,
          "name": "_to",
          "type": "address"
        },
        {
          "indexed": true,
          "name": "_ticketId",
          "type": "uint256"
        }
      ],
      "name": "Transfer",
      "type": "event"
    },
    {
      "anonymous": false,
      "inputs": [
        {
          "indexed": true,
          "name": "_owner",
          "type": "address"
        },
        {
          "indexed": true,
          "name": "_approved",
          "type": "address"
        },
        {
          "indexed": true,
          "name": "_ticketId",
          "type": "uint256"
        }
      ],
      "name": "Approval",
      "type": "event"
    },
    {
      "anonymous": false,
      "inputs": [
        {
          "indexed": true,
          "name": "userId",
          "type": "uint256"
        },
        {
          "indexed": true,
          "name": "firstName",
          "type": "string"
        },
        {
          "indexed": true,
          "name": "lastName",
          "type": "string"
        }
      ],
      "name": "NewAccount",
      "type": "event"
    },
    {
      "anonymous": false,
      "inputs": [
        {
          "indexed": true,
          "name": "ticketId",
          "type": "uint256"
        },
        {
          "indexed": true,
          "name": "eventName",
          "type": "string"
        },
        {
          "indexed": true,
          "name": "description",
          "type": "string"
        },
        {
          "indexed": false,
          "name": "price",
          "type": "uint16"
        }
      ],
      "name": "NewTicket",
      "type": "event"
    },
    {
      "constant": true,
      "inputs": [
        {
          "name": "_owner",
          "type": "address"
        }
      ],
      "name": "balanceOf",
      "outputs": [
        {
          "name": "",
          "type": "uint256"
        }
      ],
      "payable": false,
      "stateMutability": "view",
      "type": "function"
    },
    {
      "constant": true,
      "inputs": [
        {
          "name": "_ticketId",
          "type": "uint256"
        }
      ],
      "name": "ownerOf",
      "outputs": [
        {
          "name": "",
          "type": "address"
        }
      ],
      "payable": false,
      "stateMutability": "view",
      "type": "function"
    },
    {
      "constant": false,
      "inputs": [
        {
          "name": "_from",
          "type": "address"
        },
        {
          "name": "_to",
          "type": "address"
        },
        {
          "name": "_ticketId",
          "type": "uint256"
        }
      ],
      "name": "transferFrom",
      "outputs": [],
      "payable": true,
      "stateMutability": "payable",
      "type": "function"
    },
    {
      "constant": false,
      "inputs": [
        {
          "name": "_approved",
          "type": "address"
        },
        {
          "name": "_ticketId",
          "type": "uint256"
        }
      ],
      "name": "approve",
      "outputs": [],
      "payable": true,
      "stateMutability": "payable",
      "type": "function"
    },
    {
      "constant": false,
      "inputs": [
        {
          "name": "_to",
          "type": "address"
        },
        {
          "name": "_ticketId",
          "type": "uint256"
        }
      ],
      "name": "resell",
      "outputs": [],
      "payable": true,
      "stateMutability": "payable",
      "type": "function"
    }
  ],
  "bytecode": "0x608060405234801561001057600080fd5b5061186f806100206000396000f3fe60806040526004361061007b5760003560e01c806350b447121161004e57806350b44712146102655780636352211e1461039457806370a082311461040f578063fc773860146104745761007b565b8063095ea7b31461008057806323b872dd146100ce5780633502dcf21461013c578063451452fb1461018a575b600080fd5b6100cc6004803603604081101561009657600080fd5b81019080803573ffffffffffffffffffffffffffffffffffffffff1690602001909291908035906020019092919050505061055d565b005b61013a600480360360608110156100e457600080fd5b81019080803573ffffffffffffffffffffffffffffffffffffffff169060200190929190803573ffffffffffffffffffffffffffffffffffffffff169060200190929190803590602001909291905050506107e9565b005b6101886004803603604081101561015257600080fd5b81019080803573ffffffffffffffffffffffffffffffffffffffff16906020019092919080359060200190929190505050610c50565b005b34801561019657600080fd5b50610263600480360360408110156101ad57600080fd5b81019080803590602001906401000000008111156101ca57600080fd5b8201836020820111156101dc57600080fd5b803590602001918460018302840111640100000000831117156101fe57600080fd5b90919293919293908035906020019064010000000081111561021f57600080fd5b82018360208201111561023157600080fd5b8035906020019184600183028401116401000000008311171561025357600080fd5b9091929391929390505050611037565b005b34801561027157600080fd5b5061029e6004803603602081101561028857600080fd5b8101908080359060200190929190505050611259565b6040518080602001806020018461ffff1661ffff168152602001838103835286818151815260200191508051906020019080838360005b838110156102f05780820151818401526020810190506102d5565b50505050905090810190601f16801561031d5780820380516001836020036101000a031916815260200191505b50838103825285818151815260200191508051906020019080838360005b8381101561035657808201518184015260208101905061033b565b50505050905090810190601f1680156103835780820380516001836020036101000a031916815260200191505b509550505050505060405180910390f35b3480156103a057600080fd5b506103cd600480360360208110156103b757600080fd5b81019080803590602001909291905050506113ce565b604051808273ffffffffffffffffffffffffffffffffffffffff1673ffffffffffffffffffffffffffffffffffffffff16815260200191505060405180910390f35b34801561041b57600080fd5b5061045e6004803603602081101561043257600080fd5b81019080803573ffffffffffffffffffffffffffffffffffffffff16906020019092919050505061140b565b6040518082815260200191505060405180910390f35b34801561048057600080fd5b5061055b6004803603606081101561049757600080fd5b81019080803590602001906401000000008111156104b457600080fd5b8201836020820111156104c657600080fd5b803590602001918460018302840111640100000000831117156104e857600080fd5b90919293919293908035906020019064010000000081111561050957600080fd5b82018360208201111561051b57600080fd5b8035906020019184600183028401116401000000008311171561053d57600080fd5b9091929391929390803561ffff169060200190929190505050611466565b005b806003600082815260200190815260200160002060009054906101000a900473ffffffffffffffffffffffffffffffffffffffff1673ffffffffffffffffffffffffffffffffffffffff163373ffffffffffffffffffffffffffffffffffffffff161415610633576040517f08c379a00000000000000000000000000000000000000000000000000000000081526004018080602001828103825260168152602001807f596f7520617265206e6f74207468652062757965722e0000000000000000000081525060200191505060405180910390fd5b670de0b6b3a76400006001838154811061064957fe5b906000526020600020906003020160020160009054906101000a900461ffff1661ffff160267ffffffffffffffff1634146106ec576040517f08c379a00000000000000000000000000000000000000000000000000000000081526004018080602001828103825260118152602001807f4e6f7420656e6f756768206d6f6e65792e00000000000000000000000000000081525060200191505060405180910390fd5b826006600084815260200190815260200160002060006101000a81548173ffffffffffffffffffffffffffffffffffffffff021916908373ffffffffffffffffffffffffffffffffffffffff160217905550346005600084815260200190815260200160002081905550818373ffffffffffffffffffffffffffffffffffffffff166003600085815260200190815260200160002060009054906101000a900473ffffffffffffffffffffffffffffffffffffffff1673ffffffffffffffffffffffffffffffffffffffff167f8c5be1e5ebec7d5bd14f71427d1e84f3dd0314c0f7b2291e5b200ac8c7c3b92560405160405180910390a4505050565b806003600082815260200190815260200160002060009054906101000a900473ffffffffffffffffffffffffffffffffffffffff1673ffffffffffffffffffffffffffffffffffffffff163373ffffffffffffffffffffffffffffffffffffffff1614156108bf576040517f08c379a00000000000000000000000000000000000000000000000000000000081526004018080602001828103825260168152602001807f596f7520617265206e6f74207468652062757965722e0000000000000000000081525060200191505060405180910390fd5b670de0b6b3a7640000600183815481106108d557fe5b906000526020600020906003020160020160009054906101000a900461ffff1661ffff160267ffffffffffffffff163414610978576040517f08c379a00000000000000000000000000000000000000000000000000000000081526004018080602001828103825260118152602001807f4e6f7420656e6f756768206d6f6e65792e00000000000000000000000000000081525060200191505060405180910390fd5b6000600260008573ffffffffffffffffffffffffffffffffffffffff1673ffffffffffffffffffffffffffffffffffffffff1681526020019081526020016000205411610a2d576040517f08c379a000000000000000000000000000000000000000000000000000000000815260040180806020018281038252601f8152602001807f506c656173652063726561746520616e206163636f756e742066697273742e0081525060200191505060405180910390fd5b8373ffffffffffffffffffffffffffffffffffffffff166108fc670de0b6b3a764000060018581548110610a5d57fe5b906000526020600020906003020160020160009054906101000a900461ffff1661ffff160267ffffffffffffffff169081150290604051600060405180830381858888f19350505050158015610ab7573d6000803e3d6000fd5b50826003600084815260200190815260200160002060006101000a81548173ffffffffffffffffffffffffffffffffffffffff021916908373ffffffffffffffffffffffffffffffffffffffff160217905550600460008573ffffffffffffffffffffffffffffffffffffffff1673ffffffffffffffffffffffffffffffffffffffff168152602001908152602001600020600081819054906101000a900461ffff16809291906001900391906101000a81548161ffff021916908361ffff16021790555050600460008473ffffffffffffffffffffffffffffffffffffffff1673ffffffffffffffffffffffffffffffffffffffff168152602001908152602001600020600081819054906101000a900461ffff168092919060010191906101000a81548161ffff021916908361ffff16021790555050818373ffffffffffffffffffffffffffffffffffffffff168573ffffffffffffffffffffffffffffffffffffffff167fddf252ad1be2c89b69c2b068fc378daa952ba7f163c4a11628f55a4df523b3ef60405160405180910390a450505050565b803373ffffffffffffffffffffffffffffffffffffffff166003600083815260200190815260200160002060009054906101000a900473ffffffffffffffffffffffffffffffffffffffff1673ffffffffffffffffffffffffffffffffffffffff1614610d25576040517f08c379a00000000000000000000000000000000000000000000000000000000081526004018080602001828103825260198152602001807f596f7520646f6e2774206f776e20746865207469636b65742e0000000000000081525060200191505060405180910390fd5b8273ffffffffffffffffffffffffffffffffffffffff166006600084815260200190815260200160002060009054906101000a900473ffffffffffffffffffffffffffffffffffffffff1673ffffffffffffffffffffffffffffffffffffffff1614610df9576040517f08c379a000000000000000000000000000000000000000000000000000000000815260040180806020018281038252601e8152602001807f54686973206973206e6f7420616e20617070726f7665642062757965722e000081525060200191505060405180910390fd5b3373ffffffffffffffffffffffffffffffffffffffff166108fc60056000858152602001908152602001600020549081150290604051600060405180830381858888f19350505050158015610e52573d6000803e3d6000fd5b5060056000838152602001908152602001600020600090556006600083815260200190815260200160002060006101000a81549073ffffffffffffffffffffffffffffffffffffffff0219169055826003600084815260200190815260200160002060006101000a81548173ffffffffffffffffffffffffffffffffffffffff021916908373ffffffffffffffffffffffffffffffffffffffff160217905550600460003373ffffffffffffffffffffffffffffffffffffffff1673ffffffffffffffffffffffffffffffffffffffff168152602001908152602001600020600081819054906101000a900461ffff16809291906001900391906101000a81548161ffff021916908361ffff16021790555050600460008473ffffffffffffffffffffffffffffffffffffffff1673ffffffffffffffffffffffffffffffffffffffff168152602001908152602001600020600081819054906101000a900461ffff168092919060010191906101000a81548161ffff021916908361ffff16021790555050818373ffffffffffffffffffffffffffffffffffffffff163373ffffffffffffffffffffffffffffffffffffffff167fddf252ad1be2c89b69c2b068fc378daa952ba7f163c4a11628f55a4df523b3ef60405160405180910390a4505050565b60008060405180606001604052803373ffffffffffffffffffffffffffffffffffffffff16815260200187878080601f016020809104026020016040519081016040528093929190818152602001838380828437600081840152601f19601f82011690508083019250505050505050815260200185858080601f016020809104026020016040519081016040528093929190818152602001838380828437600081840152601f19601f820116905080830192505050505050508152509080600181540180825580915050906001820390600052602060002090600302016000909192909190915060008201518160000160006101000a81548173ffffffffffffffffffffffffffffffffffffffff021916908373ffffffffffffffffffffffffffffffffffffffff160217905550602082015181600101908051906020019061118192919061179e565b50604082015181600201908051906020019061119e92919061179e565b505050905080600260003373ffffffffffffffffffffffffffffffffffffffff1673ffffffffffffffffffffffffffffffffffffffff168152602001908152602001600020819055508282604051808383808284378083019250505092505050604051809103902085856040518083838082843780830192505050925050506040518091039020827fcf1b833fef0dd6469e0f14043729c162c22e5bb3f69e07c6140c37456936dfe660405160405180910390a45050505050565b6001818154811061126657fe5b9060005260206000209060030201600091509050806000018054600181600116156101000203166002900480601f0160208091040260200160405190810160405280929190818152602001828054600181600116156101000203166002900480156113125780601f106112e757610100808354040283529160200191611312565b820191906000526020600020905b8154815290600101906020018083116112f557829003601f168201915b505050505090806001018054600181600116156101000203166002900480601f0160208091040260200160405190810160405280929190818152602001828054600181600116156101000203166002900480156113b05780601f10611385576101008083540402835291602001916113b0565b820191906000526020600020905b81548152906001019060200180831161139357829003601f168201915b5050505050908060020160009054906101000a900461ffff16905083565b60006003600083815260200190815260200160002060009054906101000a900473ffffffffffffffffffffffffffffffffffffffff169050919050565b6000600460008373ffffffffffffffffffffffffffffffffffffffff1673ffffffffffffffffffffffffffffffffffffffff16815260200190815260200160002060009054906101000a900461ffff1661ffff169050919050565b6000600260003373ffffffffffffffffffffffffffffffffffffffff1673ffffffffffffffffffffffffffffffffffffffff168152602001908152602001600020541161151b576040517f08c379a000000000000000000000000000000000000000000000000000000000815260040180806020018281038252601f8152602001807f506c656173652063726561746520616e206163636f756e742066697273742e0081525060200191505060405180910390fd5b6000600180604051806060016040528089898080601f016020809104026020016040519081016040528093929190818152602001838380828437600081840152601f19601f82011690508083019250505050505050815260200187878080601f016020809104026020016040519081016040528093929190818152602001838380828437600081840152601f19601f8201169050808301925050505050505081526020018561ffff1681525090806001815401808255809150509060018203906000526020600020906003020160009091929091909150600082015181600001908051906020019061160e92919061179e565b50602082015181600101908051906020019061162b92919061179e565b5060408201518160020160006101000a81548161ffff021916908361ffff1602179055505050039050336003600083815260200190815260200160002060006101000a81548173ffffffffffffffffffffffffffffffffffffffff021916908373ffffffffffffffffffffffffffffffffffffffff160217905550600460003373ffffffffffffffffffffffffffffffffffffffff1673ffffffffffffffffffffffffffffffffffffffff168152602001908152602001600020600081819054906101000a900461ffff168092919060010191906101000a81548161ffff021916908361ffff160217905550508383604051808383808284378083019250505092505050604051809103902086866040518083838082843780830192505050925050506040518091039020827f30fd0064a7e492200adf5fd4ba1664a117c669d42f877207c2e7966e572f235685604051808261ffff1661ffff16815260200191505060405180910390a4505050505050565b828054600181600116156101000203166002900490600052602060002090601f016020900481019282601f106117df57805160ff191683800117855561180d565b8280016001018555821561180d579182015b8281111561180c5782518255916020019190600101906117f1565b5b50905061181a919061181e565b5090565b61184091905b8082111561183c576000816000905550600101611824565b5090565b9056fea165627a7a72305820fdfb992c1bee45d1508621cef30f1632ab91217ab84a01e26e9aeeb119c4845d0029",
  "source": "pragma solidity >=0.4.21 <0.6.0;\n\nimport \"./TicketCreation_simplified.sol\";\nimport \"./erc721.sol\";\n\ncontract TicketTransfer is TicketCreation, ERC721 {\n\n    event Transfer(address indexed _from, address indexed _to, uint256 indexed _ticketId);\n    event Approval(address indexed _owner, address indexed _approved, uint256 indexed _ticketId);\n\n    mapping (uint256 => uint256) ticketIdToPending;\n    mapping (uint256 => address) approvedBuyers;\n\n    /* This modifier does not allow the msg.sender to be the seller */\n    modifier notSeller(uint256 _ticketId){\n        require(msg.sender != ticketsToOwner[_ticketId], \"You are not the buyer.\");\n        _;\n    }\n\n    /* This modifier requires the ticket holder to be msg.sender */\n    modifier ownsTicket(uint256 _ticketId){\n        require(ticketsToOwner[_ticketId] == msg.sender, \"You don't own the ticket.\");\n        _;\n    }\n\n    function balanceOf(address _owner) external view returns (uint256){\n        return ownerToQuantity[_owner];\n    }\n\n    function ownerOf(uint256 _ticketId) external view returns (address){\n        return ticketsToOwner[_ticketId];\n    }\n\n    /* 1st TIME PURCHASE FROM PLATFORM - this is called when 1st time buyer presses the 'Purchase' button */\n    function transferFrom(address payable _from, address _to, uint256 _ticketId) external payable notSeller(_ticketId) {\n        require(msg.value == (tickets[_ticketId].price)*1 ether, \"Not enough money.\"); /* Requires buyer to pay the price of ticket */\n        require(adToUserId[_to] > 0, \"Please create an account first.\"); /* Requires user to have an account */\n        _from.transfer((tickets[_ticketId].price)*1 ether);\n        ticketsToOwner[_ticketId] = _to;\n        ownerToQuantity[_from]--;\n        ownerToQuantity[_to]++;\n        emit Transfer(_from, _to, _ticketId);\n    }\n\n    /* SECONDARY MARKET - a person looking to resell his/her ticket can only sell to a willing/approved buyer. This function is called by buyer. */\n    function approve(address _approved, uint256 _ticketId) external payable notSeller(_ticketId){\n        require(msg.value == (tickets[_ticketId].price)*1 ether, \"Not enough money.\"); /* Requires buyer to pay the price of ticket */\n        approvedBuyers[_ticketId] = _approved; /* Buyer approves him/herself for the ticket, goes into the approved buyer mapping */\n        ticketIdToPending[_ticketId] = msg.value; /* Buyer's money gets stored in the contract, so we store it in a temp mapping */\n        emit Approval(ticketsToOwner[_ticketId], _approved, _ticketId);\n    }\n\n    /* SECONDARY MARKET - after the buyer is approved, seller presses 'Sell' button, and then the ticket's ownership gets transferred. Seller also gets money from contract. */\n    function resell(address _to, uint256 _ticketId) external payable ownsTicket(_ticketId) {\n        require(approvedBuyers[_ticketId] == _to, \"This is not an approved buyer.\"); /* Requires the transferee to be an approved buyer for the ticket */\n        msg.sender.transfer(ticketIdToPending[_ticketId]); /* Money gets transferred from contract to seller */\n        delete(ticketIdToPending[_ticketId]); /* Can be deleted as the mapping is no longer needed */\n        delete(approvedBuyers[_ticketId]); /* Can be deleted as the mapping is no longer needed */\n        ticketsToOwner[_ticketId] = _to;\n        ownerToQuantity[msg.sender]--;\n        ownerToQuantity[_to]++;\n        emit Transfer(msg.sender, _to, _ticketId);\n    }\n\n}",
  "sourcePath": "/Users/AaronKo/Desktop/Solidity/TicketExchangeDapp/contracts/TicketTransfer_simplified.sol",
  "compiler": {
    "name": "solc",
    "version": "0.5.8+commit.23d335f2.Emscripten.clang"
  },
  "schemaVersion": "3.0.11",
  "updatedAt": "2019-08-01T22:50:02.805Z",
  "devdoc": {
    "methods": {}
  },
  "userdoc": {
    "methods": {}
  }
}