{
  "contractName": "TicketCreationSimplified",
  "abi": [
    {
      "constant": true,
      "inputs": [
        {
          "name": "",
          "type": "uint256"
        }
      ],
      "name": "tickets",
      "outputs": [
        {
          "name": "eventName",
          "type": "string"
        },
        {
          "name": "description",
          "type": "string"
        },
        {
          "name": "price",
          "type": "uint16"
        }
      ],
      "payable": false,
      "stateMutability": "view",
      "type": "function"
    },
    {
      "anonymous": false,
      "inputs": [
        {
          "indexed": true,
          "name": "userId",
          "type": "uint256"
        },
        {
          "indexed": true,
          "name": "firstName",
          "type": "string"
        },
        {
          "indexed": true,
          "name": "lastName",
          "type": "string"
        }
      ],
      "name": "NewAccount",
      "type": "event"
    },
    {
      "anonymous": false,
      "inputs": [
        {
          "indexed": true,
          "name": "ticketId",
          "type": "uint256"
        },
        {
          "indexed": true,
          "name": "eventName",
          "type": "string"
        },
        {
          "indexed": true,
          "name": "description",
          "type": "string"
        },
        {
          "indexed": false,
          "name": "price",
          "type": "uint16"
        }
      ],
      "name": "NewTicket",
      "type": "event"
    },
    {
      "constant": false,
      "inputs": [
        {
          "name": "_firstName",
          "type": "string"
        },
        {
          "name": "_lastName",
          "type": "string"
        }
      ],
      "name": "accountCreation",
      "outputs": [],
      "payable": false,
      "stateMutability": "nonpayable",
      "type": "function"
    },
    {
      "constant": false,
      "inputs": [
        {
          "name": "_eventName",
          "type": "string"
        },
        {
          "name": "_description",
          "type": "string"
        },
        {
          "name": "_price",
          "type": "uint16"
        }
      ],
      "name": "createTicket",
      "outputs": [],
      "payable": false,
      "stateMutability": "nonpayable",
      "type": "function"
    }
  ],
  "bytecode": "0x608060405234801561001057600080fd5b50610ab2806100206000396000f3fe608060405234801561001057600080fd5b50600436106100415760003560e01c8063451452fb1461004657806350b4471214610114578063fc77386014610236575b600080fd5b6101126004803603604081101561005c57600080fd5b810190808035906020019064010000000081111561007957600080fd5b82018360208201111561008b57600080fd5b803590602001918460018302840111640100000000831117156100ad57600080fd5b9091929391929390803590602001906401000000008111156100ce57600080fd5b8201836020820111156100e057600080fd5b8035906020019184600183028401116401000000008311171561010257600080fd5b9091929391929390505050610312565b005b6101406004803603602081101561012a57600080fd5b8101908080359060200190929190505050610534565b6040518080602001806020018461ffff1661ffff168152602001838103835286818151815260200191508051906020019080838360005b83811015610192578082015181840152602081019050610177565b50505050905090810190601f1680156101bf5780820380516001836020036101000a031916815260200191505b50838103825285818151815260200191508051906020019080838360005b838110156101f85780820151818401526020810190506101dd565b50505050905090810190601f1680156102255780820380516001836020036101000a031916815260200191505b509550505050505060405180910390f35b6103106004803603606081101561024c57600080fd5b810190808035906020019064010000000081111561026957600080fd5b82018360208201111561027b57600080fd5b8035906020019184600183028401116401000000008311171561029d57600080fd5b9091929391929390803590602001906401000000008111156102be57600080fd5b8201836020820111156102d057600080fd5b803590602001918460018302840111640100000000831117156102f257600080fd5b9091929391929390803561ffff1690602001909291905050506106a9565b005b60008060405180606001604052803373ffffffffffffffffffffffffffffffffffffffff16815260200187878080601f016020809104026020016040519081016040528093929190818152602001838380828437600081840152601f19601f82011690508083019250505050505050815260200185858080601f016020809104026020016040519081016040528093929190818152602001838380828437600081840152601f19601f820116905080830192505050505050508152509080600181540180825580915050906001820390600052602060002090600302016000909192909190915060008201518160000160006101000a81548173ffffffffffffffffffffffffffffffffffffffff021916908373ffffffffffffffffffffffffffffffffffffffff160217905550602082015181600101908051906020019061045c9291906109e1565b5060408201518160020190805190602001906104799291906109e1565b505050905080600260003373ffffffffffffffffffffffffffffffffffffffff1673ffffffffffffffffffffffffffffffffffffffff168152602001908152602001600020819055508282604051808383808284378083019250505092505050604051809103902085856040518083838082843780830192505050925050506040518091039020827fcf1b833fef0dd6469e0f14043729c162c22e5bb3f69e07c6140c37456936dfe660405160405180910390a45050505050565b6001818154811061054157fe5b9060005260206000209060030201600091509050806000018054600181600116156101000203166002900480601f0160208091040260200160405190810160405280929190818152602001828054600181600116156101000203166002900480156105ed5780601f106105c2576101008083540402835291602001916105ed565b820191906000526020600020905b8154815290600101906020018083116105d057829003601f168201915b505050505090806001018054600181600116156101000203166002900480601f01602080910402602001604051908101604052809291908181526020018280546001816001161561010002031660029004801561068b5780601f106106605761010080835404028352916020019161068b565b820191906000526020600020905b81548152906001019060200180831161066e57829003601f168201915b5050505050908060020160009054906101000a900461ffff16905083565b6000600260003373ffffffffffffffffffffffffffffffffffffffff1673ffffffffffffffffffffffffffffffffffffffff168152602001908152602001600020541161075e576040517f08c379a000000000000000000000000000000000000000000000000000000000815260040180806020018281038252601f8152602001807f506c656173652063726561746520616e206163636f756e742066697273742e0081525060200191505060405180910390fd5b6000600180604051806060016040528089898080601f016020809104026020016040519081016040528093929190818152602001838380828437600081840152601f19601f82011690508083019250505050505050815260200187878080601f016020809104026020016040519081016040528093929190818152602001838380828437600081840152601f19601f8201169050808301925050505050505081526020018561ffff168152509080600181540180825580915050906001820390600052602060002090600302016000909192909190915060008201518160000190805190602001906108519291906109e1565b50602082015181600101908051906020019061086e9291906109e1565b5060408201518160020160006101000a81548161ffff021916908361ffff1602179055505050039050336003600083815260200190815260200160002060006101000a81548173ffffffffffffffffffffffffffffffffffffffff021916908373ffffffffffffffffffffffffffffffffffffffff160217905550600460003373ffffffffffffffffffffffffffffffffffffffff1673ffffffffffffffffffffffffffffffffffffffff168152602001908152602001600020600081819054906101000a900461ffff168092919060010191906101000a81548161ffff021916908361ffff160217905550508383604051808383808284378083019250505092505050604051809103902086866040518083838082843780830192505050925050506040518091039020827f30fd0064a7e492200adf5fd4ba1664a117c669d42f877207c2e7966e572f235685604051808261ffff1661ffff16815260200191505060405180910390a4505050505050565b828054600181600116156101000203166002900490600052602060002090601f016020900481019282601f10610a2257805160ff1916838001178555610a50565b82800160010185558215610a50579182015b82811115610a4f578251825591602001919060010190610a34565b5b509050610a5d9190610a61565b5090565b610a8391905b80821115610a7f576000816000905550600101610a67565b5090565b9056fea165627a7a7230582078a8fd96013a44908779bfff36aa973fc1c3a03d9018b1d2e53d20f3e30b50250029",
  "source": "pragma solidity >=0.4.21 <0.6.0;\n\ncontract TicketCreationSimplified {\n\n  /* Emit events when new accounts and new tickets have been created */\n  event NewAccount(uint256 indexed userId, string indexed firstName, string indexed lastName);\n  event NewTicket(uint256 indexed ticketId, string indexed eventName, string indexed description, uint16 price);\n\n  /* Struct for User */\n  struct User {\n    address userAd;\n    string firstName;\n    string lastName;\n  }\n\n  /* Struct for Ticket, ticket ID is stored in a mapping below in ticketsToOwner */\n  struct Ticket {\n    string eventName;\n    string description;\n    uint16 price;\n  }\n\n  User[] users; /* Array of Users */\n  Ticket[] public tickets; /* Array of Tickets */\n\n  /* Maps address to user ID */\n  mapping (address => uint256) adToUserId;\n  /* Maps ticket IDs to user addresses */\n  mapping (uint256 => address) ticketsToOwner;\n  /* Maps users to their number of tickets held */\n  mapping (address => uint16) ownerToQuantity;\n\n  function accountCreation(string calldata _firstName, string calldata _lastName) external {\n    uint256 userId = users.push(User(msg.sender, _firstName, _lastName));\n    adToUserId[msg.sender] = userId;\n    emit NewAccount(userId, _firstName, _lastName); /* Event emitter */\n  }\n\n  function createTicket(string calldata _eventName, string calldata _description, uint16 _price) external {\n    require(adToUserId[msg.sender] > 0, \"Please create an account first.\"); /* Requires user to have an account */\n    uint256 ticketId = tickets.push(Ticket(_eventName, _description, _price))-1;\n    ticketsToOwner[ticketId] = msg.sender;\n    ownerToQuantity[msg.sender]++;\n    emit NewTicket(ticketId, _eventName, _description, _price); /* Event emitter */\n  }\n\n}",
  "sourcePath": "/Users/AaronKo/Desktop/Solidity/TicketExchangeDapp/contracts/TicketCreation_simplified.sol",
  "compiler": {
    "name": "solc",
    "version": "0.5.8+commit.23d335f2.Emscripten.clang"
  },
  "schemaVersion": "3.0.11",
  "updatedAt": "2019-08-01T03:42:37.557Z",
  "devdoc": {
    "methods": {}
  },
  "userdoc": {
    "methods": {}
  }
}