{
  "contractName": "TicketTransferSimplified",
  "abi": [
    {
      "constant": false,
      "inputs": [
        {
          "name": "_firstName",
          "type": "string"
        },
        {
          "name": "_lastName",
          "type": "string"
        }
      ],
      "name": "accountCreation",
      "outputs": [],
      "payable": false,
      "stateMutability": "nonpayable",
      "type": "function"
    },
    {
      "constant": true,
      "inputs": [
        {
          "name": "",
          "type": "uint256"
        }
      ],
      "name": "tickets",
      "outputs": [
        {
          "name": "eventName",
          "type": "string"
        },
        {
          "name": "description",
          "type": "string"
        },
        {
          "name": "price",
          "type": "uint16"
        }
      ],
      "payable": false,
      "stateMutability": "view",
      "type": "function"
    },
    {
      "constant": false,
      "inputs": [
        {
          "name": "_eventName",
          "type": "string"
        },
        {
          "name": "_description",
          "type": "string"
        },
        {
          "name": "_price",
          "type": "uint16"
        }
      ],
      "name": "createTicket",
      "outputs": [],
      "payable": false,
      "stateMutability": "nonpayable",
      "type": "function"
    },
    {
      "anonymous": false,
      "inputs": [
        {
          "indexed": true,
          "name": "_from",
          "type": "address"
        },
        {
          "indexed": true,
          "name": "_to",
          "type": "address"
        },
        {
          "indexed": true,
          "name": "_ticketId",
          "type": "uint256"
        }
      ],
      "name": "Transfer",
      "type": "event"
    },
    {
      "anonymous": false,
      "inputs": [
        {
          "indexed": true,
          "name": "_owner",
          "type": "address"
        },
        {
          "indexed": true,
          "name": "_approved",
          "type": "address"
        },
        {
          "indexed": true,
          "name": "_ticketId",
          "type": "uint256"
        }
      ],
      "name": "Approval",
      "type": "event"
    },
    {
      "anonymous": false,
      "inputs": [
        {
          "indexed": true,
          "name": "userId",
          "type": "uint256"
        },
        {
          "indexed": true,
          "name": "firstName",
          "type": "string"
        },
        {
          "indexed": true,
          "name": "lastName",
          "type": "string"
        }
      ],
      "name": "NewAccount",
      "type": "event"
    },
    {
      "anonymous": false,
      "inputs": [
        {
          "indexed": true,
          "name": "ticketId",
          "type": "uint256"
        },
        {
          "indexed": true,
          "name": "eventName",
          "type": "string"
        },
        {
          "indexed": true,
          "name": "description",
          "type": "string"
        },
        {
          "indexed": false,
          "name": "price",
          "type": "uint16"
        }
      ],
      "name": "NewTicket",
      "type": "event"
    },
    {
      "constant": true,
      "inputs": [
        {
          "name": "_owner",
          "type": "address"
        }
      ],
      "name": "balanceOf",
      "outputs": [
        {
          "name": "",
          "type": "uint256"
        }
      ],
      "payable": false,
      "stateMutability": "view",
      "type": "function"
    },
    {
      "constant": true,
      "inputs": [
        {
          "name": "_ticketId",
          "type": "uint256"
        }
      ],
      "name": "ownerOf",
      "outputs": [
        {
          "name": "",
          "type": "address"
        }
      ],
      "payable": false,
      "stateMutability": "view",
      "type": "function"
    },
    {
      "constant": false,
      "inputs": [
        {
          "name": "_from",
          "type": "address"
        },
        {
          "name": "_to",
          "type": "address"
        },
        {
          "name": "_ticketId",
          "type": "uint256"
        }
      ],
      "name": "transferFrom",
      "outputs": [],
      "payable": true,
      "stateMutability": "payable",
      "type": "function"
    },
    {
      "constant": false,
      "inputs": [
        {
          "name": "_approved",
          "type": "address"
        },
        {
          "name": "_ticketId",
          "type": "uint256"
        }
      ],
      "name": "approve",
      "outputs": [],
      "payable": true,
      "stateMutability": "payable",
      "type": "function"
    },
    {
      "constant": false,
      "inputs": [
        {
          "name": "_from",
          "type": "address"
        },
        {
          "name": "_to",
          "type": "address"
        },
        {
          "name": "_ticketId",
          "type": "uint256"
        }
      ],
      "name": "transferAfterApproval",
      "outputs": [],
      "payable": true,
      "stateMutability": "payable",
      "type": "function"
    }
  ],
  "bytecode": "0x608060405234801561001057600080fd5b506117e5806100206000396000f3fe60806040526004361061007b5760003560e01c80635b1fa50b1161004e5780635b1fa50b146103465780636352211e146103b457806370a082311461042f578063fc773860146104945761007b565b8063095ea7b31461008057806323b872dd146100ce578063451452fb1461013c57806350b4471214610217575b600080fd5b6100cc6004803603604081101561009657600080fd5b81019080803573ffffffffffffffffffffffffffffffffffffffff1690602001909291908035906020019092919050505061057d565b005b61013a600480360360608110156100e457600080fd5b81019080803573ffffffffffffffffffffffffffffffffffffffff169060200190929190803573ffffffffffffffffffffffffffffffffffffffff16906020019092919080359060200190929190505050610809565b005b34801561014857600080fd5b506102156004803603604081101561015f57600080fd5b810190808035906020019064010000000081111561017c57600080fd5b82018360208201111561018e57600080fd5b803590602001918460018302840111640100000000831117156101b057600080fd5b9091929391929390803590602001906401000000008111156101d157600080fd5b8201836020820111156101e357600080fd5b8035906020019184600183028401116401000000008311171561020557600080fd5b9091929391929390505050610bbb565b005b34801561022357600080fd5b506102506004803603602081101561023a57600080fd5b8101908080359060200190929190505050610ddd565b6040518080602001806020018461ffff1661ffff168152602001838103835286818151815260200191508051906020019080838360005b838110156102a2578082015181840152602081019050610287565b50505050905090810190601f1680156102cf5780820380516001836020036101000a031916815260200191505b50838103825285818151815260200191508051906020019080838360005b838110156103085780820151818401526020810190506102ed565b50505050905090810190601f1680156103355780820380516001836020036101000a031916815260200191505b509550505050505060405180910390f35b6103b26004803603606081101561035c57600080fd5b81019080803573ffffffffffffffffffffffffffffffffffffffff169060200190929190803573ffffffffffffffffffffffffffffffffffffffff16906020019092919080359060200190929190505050610f52565b005b3480156103c057600080fd5b506103ed600480360360208110156103d757600080fd5b8101908080359060200190929190505050611344565b604051808273ffffffffffffffffffffffffffffffffffffffff1673ffffffffffffffffffffffffffffffffffffffff16815260200191505060405180910390f35b34801561043b57600080fd5b5061047e6004803603602081101561045257600080fd5b81019080803573ffffffffffffffffffffffffffffffffffffffff169060200190929190505050611381565b6040518082815260200191505060405180910390f35b3480156104a057600080fd5b5061057b600480360360608110156104b757600080fd5b81019080803590602001906401000000008111156104d457600080fd5b8201836020820111156104e657600080fd5b8035906020019184600183028401116401000000008311171561050857600080fd5b90919293919293908035906020019064010000000081111561052957600080fd5b82018360208201111561053b57600080fd5b8035906020019184600183028401116401000000008311171561055d57600080fd5b9091929391929390803561ffff1690602001909291905050506113dc565b005b806003600082815260200190815260200160002060009054906101000a900473ffffffffffffffffffffffffffffffffffffffff1673ffffffffffffffffffffffffffffffffffffffff163373ffffffffffffffffffffffffffffffffffffffff161415610653576040517f08c379a00000000000000000000000000000000000000000000000000000000081526004018080602001828103825260168152602001807f596f7520617265206e6f74207468652062757965722e0000000000000000000081525060200191505060405180910390fd5b670de0b6b3a76400006001838154811061066957fe5b906000526020600020906003020160020160009054906101000a900461ffff1661ffff160267ffffffffffffffff16341461070c576040517f08c379a00000000000000000000000000000000000000000000000000000000081526004018080602001828103825260118152602001807f4e6f7420656e6f756768206d6f6e65792e00000000000000000000000000000081525060200191505060405180910390fd5b826006600084815260200190815260200160002060006101000a81548173ffffffffffffffffffffffffffffffffffffffff021916908373ffffffffffffffffffffffffffffffffffffffff160217905550346005600084815260200190815260200160002081905550818373ffffffffffffffffffffffffffffffffffffffff166003600085815260200190815260200160002060009054906101000a900473ffffffffffffffffffffffffffffffffffffffff1673ffffffffffffffffffffffffffffffffffffffff167f8c5be1e5ebec7d5bd14f71427d1e84f3dd0314c0f7b2291e5b200ac8c7c3b92560405160405180910390a4505050565b806003600082815260200190815260200160002060009054906101000a900473ffffffffffffffffffffffffffffffffffffffff1673ffffffffffffffffffffffffffffffffffffffff163373ffffffffffffffffffffffffffffffffffffffff1614156108df576040517f08c379a00000000000000000000000000000000000000000000000000000000081526004018080602001828103825260168152602001807f596f7520617265206e6f74207468652062757965722e0000000000000000000081525060200191505060405180910390fd5b670de0b6b3a7640000600183815481106108f557fe5b906000526020600020906003020160020160009054906101000a900461ffff1661ffff160267ffffffffffffffff163414610998576040517f08c379a00000000000000000000000000000000000000000000000000000000081526004018080602001828103825260118152602001807f4e6f7420656e6f756768206d6f6e65792e00000000000000000000000000000081525060200191505060405180910390fd5b8373ffffffffffffffffffffffffffffffffffffffff166108fc670de0b6b3a7640000600185815481106109c857fe5b906000526020600020906003020160020160009054906101000a900461ffff1661ffff160267ffffffffffffffff169081150290604051600060405180830381858888f19350505050158015610a22573d6000803e3d6000fd5b50826003600084815260200190815260200160002060006101000a81548173ffffffffffffffffffffffffffffffffffffffff021916908373ffffffffffffffffffffffffffffffffffffffff160217905550600460008573ffffffffffffffffffffffffffffffffffffffff1673ffffffffffffffffffffffffffffffffffffffff168152602001908152602001600020600081819054906101000a900461ffff16809291906001900391906101000a81548161ffff021916908361ffff16021790555050600460008473ffffffffffffffffffffffffffffffffffffffff1673ffffffffffffffffffffffffffffffffffffffff168152602001908152602001600020600081819054906101000a900461ffff168092919060010191906101000a81548161ffff021916908361ffff16021790555050818373ffffffffffffffffffffffffffffffffffffffff168573ffffffffffffffffffffffffffffffffffffffff167fddf252ad1be2c89b69c2b068fc378daa952ba7f163c4a11628f55a4df523b3ef60405160405180910390a450505050565b60008060405180606001604052803373ffffffffffffffffffffffffffffffffffffffff16815260200187878080601f016020809104026020016040519081016040528093929190818152602001838380828437600081840152601f19601f82011690508083019250505050505050815260200185858080601f016020809104026020016040519081016040528093929190818152602001838380828437600081840152601f19601f820116905080830192505050505050508152509080600181540180825580915050906001820390600052602060002090600302016000909192909190915060008201518160000160006101000a81548173ffffffffffffffffffffffffffffffffffffffff021916908373ffffffffffffffffffffffffffffffffffffffff1602179055506020820151816001019080519060200190610d05929190611714565b506040820151816002019080519060200190610d22929190611714565b505050905080600260003373ffffffffffffffffffffffffffffffffffffffff1673ffffffffffffffffffffffffffffffffffffffff168152602001908152602001600020819055508282604051808383808284378083019250505092505050604051809103902085856040518083838082843780830192505050925050506040518091039020827fcf1b833fef0dd6469e0f14043729c162c22e5bb3f69e07c6140c37456936dfe660405160405180910390a45050505050565b60018181548110610dea57fe5b9060005260206000209060030201600091509050806000018054600181600116156101000203166002900480601f016020809104026020016040519081016040528092919081815260200182805460018160011615610100020316600290048015610e965780601f10610e6b57610100808354040283529160200191610e96565b820191906000526020600020905b815481529060010190602001808311610e7957829003601f168201915b505050505090806001018054600181600116156101000203166002900480601f016020809104026020016040519081016040528092919081815260200182805460018160011615610100020316600290048015610f345780601f10610f0957610100808354040283529160200191610f34565b820191906000526020600020905b815481529060010190602001808311610f1757829003601f168201915b5050505050908060020160009054906101000a900461ffff16905083565b803373ffffffffffffffffffffffffffffffffffffffff166003600083815260200190815260200160002060009054906101000a900473ffffffffffffffffffffffffffffffffffffffff1673ffffffffffffffffffffffffffffffffffffffff1614611027576040517f08c379a00000000000000000000000000000000000000000000000000000000081526004018080602001828103825260198152602001807f596f7520646f6e2774206f776e20746865207469636b65742e0000000000000081525060200191505060405180910390fd5b8273ffffffffffffffffffffffffffffffffffffffff166006600084815260200190815260200160002060009054906101000a900473ffffffffffffffffffffffffffffffffffffffff1673ffffffffffffffffffffffffffffffffffffffff16146110fb576040517f08c379a000000000000000000000000000000000000000000000000000000000815260040180806020018281038252601e8152602001807f54686973206973206e6f7420616e20617070726f7665642062757965722e000081525060200191505060405180910390fd5b8373ffffffffffffffffffffffffffffffffffffffff166108fc670de0b6b3a76400006005600086815260200190815260200160002054029081150290604051600060405180830381858888f1935050505015801561115e573d6000803e3d6000fd5b5060056000838152602001908152602001600020600090556006600083815260200190815260200160002060006101000a81549073ffffffffffffffffffffffffffffffffffffffff0219169055826003600084815260200190815260200160002060006101000a81548173ffffffffffffffffffffffffffffffffffffffff021916908373ffffffffffffffffffffffffffffffffffffffff160217905550600460008573ffffffffffffffffffffffffffffffffffffffff1673ffffffffffffffffffffffffffffffffffffffff168152602001908152602001600020600081819054906101000a900461ffff16809291906001900391906101000a81548161ffff021916908361ffff16021790555050600460008473ffffffffffffffffffffffffffffffffffffffff1673ffffffffffffffffffffffffffffffffffffffff168152602001908152602001600020600081819054906101000a900461ffff168092919060010191906101000a81548161ffff021916908361ffff16021790555050818373ffffffffffffffffffffffffffffffffffffffff168573ffffffffffffffffffffffffffffffffffffffff167fddf252ad1be2c89b69c2b068fc378daa952ba7f163c4a11628f55a4df523b3ef60405160405180910390a450505050565b60006003600083815260200190815260200160002060009054906101000a900473ffffffffffffffffffffffffffffffffffffffff169050919050565b6000600460008373ffffffffffffffffffffffffffffffffffffffff1673ffffffffffffffffffffffffffffffffffffffff16815260200190815260200160002060009054906101000a900461ffff1661ffff169050919050565b6000600260003373ffffffffffffffffffffffffffffffffffffffff1673ffffffffffffffffffffffffffffffffffffffff1681526020019081526020016000205411611491576040517f08c379a000000000000000000000000000000000000000000000000000000000815260040180806020018281038252601f8152602001807f506c656173652063726561746520616e206163636f756e742066697273742e0081525060200191505060405180910390fd5b6000600180604051806060016040528089898080601f016020809104026020016040519081016040528093929190818152602001838380828437600081840152601f19601f82011690508083019250505050505050815260200187878080601f016020809104026020016040519081016040528093929190818152602001838380828437600081840152601f19601f8201169050808301925050505050505081526020018561ffff16815250908060018154018082558091505090600182039060005260206000209060030201600090919290919091506000820151816000019080519060200190611584929190611714565b5060208201518160010190805190602001906115a1929190611714565b5060408201518160020160006101000a81548161ffff021916908361ffff1602179055505050039050336003600083815260200190815260200160002060006101000a81548173ffffffffffffffffffffffffffffffffffffffff021916908373ffffffffffffffffffffffffffffffffffffffff160217905550600460003373ffffffffffffffffffffffffffffffffffffffff1673ffffffffffffffffffffffffffffffffffffffff168152602001908152602001600020600081819054906101000a900461ffff168092919060010191906101000a81548161ffff021916908361ffff160217905550508383604051808383808284378083019250505092505050604051809103902086866040518083838082843780830192505050925050506040518091039020827f30fd0064a7e492200adf5fd4ba1664a117c669d42f877207c2e7966e572f235685604051808261ffff1661ffff16815260200191505060405180910390a4505050505050565b828054600181600116156101000203166002900490600052602060002090601f016020900481019282601f1061175557805160ff1916838001178555611783565b82800160010185558215611783579182015b82811115611782578251825591602001919060010190611767565b5b5090506117909190611794565b5090565b6117b691905b808211156117b257600081600090555060010161179a565b5090565b9056fea165627a7a723058201d81f5bebdb4d09c91aa79544b944932f601b1b651c54b584d727579e0cc49e80029",
  "source": "pragma solidity >=0.4.21 <0.6.0;\n\nimport \"./TicketCreation_simplified.sol\";\nimport \"./erc721.sol\";\n\ncontract TicketTransferSimplified is TicketCreationSimplified, ERC721 {\n\n    event Transfer(address indexed _from, address indexed _to, uint256 indexed _ticketId);\n    event Approval(address indexed _owner, address indexed _approved, uint256 indexed _ticketId);\n\n    mapping (uint256 => uint256) ticketIdToPending;\n    mapping (uint256 => address) approvedBuyers;\n\n    /* This modifier does not allow the msg.sender to be the seller */\n    modifier notSeller(uint256 _ticketId){\n        require(msg.sender != ticketsToOwner[_ticketId], \"You are not the buyer.\");\n        _;\n    }\n\n    /* This modifier requires the ticket holder to be msg.sender */\n    modifier ownsTicket(uint256 _ticketId){\n        require(ticketsToOwner[_ticketId] == msg.sender, \"You don't own the ticket.\");\n        _;\n    }\n\n    function balanceOf(address _owner) external view returns (uint256){\n        return ownerToQuantity[_owner];\n    }\n\n    function ownerOf(uint256 _ticketId) external view returns (address){\n        return ticketsToOwner[_ticketId];\n    }\n\n    /* 1st TIME PURCHASE FROM PLATFORM - this is called when 1st time buyer presses the 'Purchase' button */\n    function transferFrom(address payable _from, address _to, uint256 _ticketId) external payable notSeller(_ticketId) {\n        require(msg.value == (tickets[_ticketId].price)*1 ether, \"Not enough money.\"); /* Requires buyer to pay the price of ticket */\n        _from.transfer((tickets[_ticketId].price)*1 ether);\n        ticketsToOwner[_ticketId] = _to;\n        ownerToQuantity[_from]--;\n        ownerToQuantity[_to]++;\n        emit Transfer(_from, _to, _ticketId);\n    }\n\n    /* SECONDARY MARKET - a person looking to resell his/her ticket can only sell to a willing/approved buyer. This function is called by buyer. */\n    function approve(address _approved, uint256 _ticketId) external payable notSeller(_ticketId){\n        require(msg.value == (tickets[_ticketId].price)*1 ether, \"Not enough money.\"); /* Requires buyer to pay the price of ticket */\n        approvedBuyers[_ticketId] = _approved; /* Buyer approves him/herself for the ticket, goes into the approved buyer mapping */\n        ticketIdToPending[_ticketId] = msg.value; /* Buyer's money gets stored in the contract, so we store it in a temp mapping */\n        emit Approval(ticketsToOwner[_ticketId], _approved, _ticketId);\n    }\n\n    /* SECONDARY MARKET - after the buyer is approved, seller presses 'Sell' button, and then the ticket's ownership gets transferred. Seller also gets money from contract. */\n    function transferAfterApproval(address payable _from, address _to, uint256 _ticketId) external payable ownsTicket(_ticketId) {\n        require(approvedBuyers[_ticketId] == _to, \"This is not an approved buyer.\"); /* Requires the transferee to be an approved buyer for the ticket */\n        _from.transfer((ticketIdToPending[_ticketId])*1 ether); /* Money gets transferred from contract to seller */\n        delete(ticketIdToPending[_ticketId]); /* Can be deleted as the mapping is no longer needed */\n        delete(approvedBuyers[_ticketId]); /* Can be deleted as the mapping is no longer needed */\n        ticketsToOwner[_ticketId] = _to;\n        ownerToQuantity[_from]--;\n        ownerToQuantity[_to]++;\n        emit Transfer(_from, _to, _ticketId);\n    }\n\n}",
  "sourcePath": "/Users/AaronKo/Desktop/Solidity/TicketExchangeDapp/contracts/TicketTransfer_simplified.sol",
  "compiler": {
    "name": "solc",
    "version": "0.5.8+commit.23d335f2.Emscripten.clang"
  },
  "schemaVersion": "3.0.11",
  "updatedAt": "2019-08-01T03:46:49.917Z",
  "devdoc": {
    "methods": {}
  },
  "userdoc": {
    "methods": {}
  }
}