{
  "contractName": "TicketTransfer",
  "abi": [
    {
      "constant": false,
      "inputs": [
        {
          "name": "_firstName",
          "type": "string"
        },
        {
          "name": "_lastName",
          "type": "string"
        }
      ],
      "name": "accountCreation",
      "outputs": [],
      "payable": false,
      "stateMutability": "nonpayable",
      "type": "function"
    },
    {
      "constant": true,
      "inputs": [
        {
          "name": "",
          "type": "uint256"
        }
      ],
      "name": "tickets",
      "outputs": [
        {
          "name": "eventName",
          "type": "string"
        },
        {
          "name": "description",
          "type": "string"
        },
        {
          "name": "available",
          "type": "bool"
        },
        {
          "name": "price",
          "type": "uint16"
        }
      ],
      "payable": false,
      "stateMutability": "view",
      "type": "function"
    },
    {
      "constant": true,
      "inputs": [
        {
          "name": "",
          "type": "address"
        }
      ],
      "name": "addressToPendingStake",
      "outputs": [
        {
          "name": "",
          "type": "uint256"
        }
      ],
      "payable": false,
      "stateMutability": "view",
      "type": "function"
    },
    {
      "constant": true,
      "inputs": [
        {
          "name": "",
          "type": "address"
        }
      ],
      "name": "addressToPendingPrice",
      "outputs": [
        {
          "name": "",
          "type": "uint256"
        }
      ],
      "payable": false,
      "stateMutability": "view",
      "type": "function"
    },
    {
      "constant": false,
      "inputs": [
        {
          "name": "_eventName",
          "type": "string"
        },
        {
          "name": "_description",
          "type": "string"
        },
        {
          "name": "_price",
          "type": "uint16"
        }
      ],
      "name": "createTicket",
      "outputs": [],
      "payable": true,
      "stateMutability": "payable",
      "type": "function"
    },
    {
      "anonymous": false,
      "inputs": [
        {
          "indexed": true,
          "name": "_from",
          "type": "address"
        },
        {
          "indexed": true,
          "name": "_to",
          "type": "address"
        },
        {
          "indexed": true,
          "name": "_ticketId",
          "type": "uint256"
        }
      ],
      "name": "Transfer",
      "type": "event"
    },
    {
      "anonymous": false,
      "inputs": [
        {
          "indexed": true,
          "name": "_owner",
          "type": "address"
        },
        {
          "indexed": true,
          "name": "_approved",
          "type": "address"
        },
        {
          "indexed": true,
          "name": "_ticketId",
          "type": "uint256"
        }
      ],
      "name": "Approval",
      "type": "event"
    },
    {
      "anonymous": false,
      "inputs": [
        {
          "indexed": true,
          "name": "userId",
          "type": "uint256"
        },
        {
          "indexed": true,
          "name": "firstName",
          "type": "string"
        },
        {
          "indexed": true,
          "name": "lastName",
          "type": "string"
        }
      ],
      "name": "NewAccount",
      "type": "event"
    },
    {
      "anonymous": false,
      "inputs": [
        {
          "indexed": true,
          "name": "ticketId",
          "type": "uint256"
        },
        {
          "indexed": true,
          "name": "eventName",
          "type": "string"
        },
        {
          "indexed": true,
          "name": "description",
          "type": "string"
        },
        {
          "indexed": false,
          "name": "available",
          "type": "bool"
        },
        {
          "indexed": false,
          "name": "price",
          "type": "uint16"
        }
      ],
      "name": "NewTicket",
      "type": "event"
    },
    {
      "constant": true,
      "inputs": [
        {
          "name": "_owner",
          "type": "address"
        }
      ],
      "name": "balanceOf",
      "outputs": [
        {
          "name": "",
          "type": "uint256"
        }
      ],
      "payable": false,
      "stateMutability": "view",
      "type": "function"
    },
    {
      "constant": true,
      "inputs": [
        {
          "name": "_ticketId",
          "type": "uint256"
        }
      ],
      "name": "ownerOf",
      "outputs": [
        {
          "name": "",
          "type": "address"
        }
      ],
      "payable": false,
      "stateMutability": "view",
      "type": "function"
    },
    {
      "constant": false,
      "inputs": [
        {
          "name": "_approved",
          "type": "address"
        },
        {
          "name": "_ticketId",
          "type": "uint256"
        }
      ],
      "name": "approve",
      "outputs": [],
      "payable": true,
      "stateMutability": "payable",
      "type": "function"
    },
    {
      "constant": false,
      "inputs": [
        {
          "name": "_from",
          "type": "address"
        },
        {
          "name": "_to",
          "type": "address"
        },
        {
          "name": "_ticketId",
          "type": "uint256"
        }
      ],
      "name": "transferFrom",
      "outputs": [],
      "payable": true,
      "stateMutability": "payable",
      "type": "function"
    },
    {
      "constant": false,
      "inputs": [
        {
          "name": "_ticketId",
          "type": "uint256"
        }
      ],
      "name": "confirmDeliveredDate",
      "outputs": [],
      "payable": false,
      "stateMutability": "nonpayable",
      "type": "function"
    },
    {
      "constant": false,
      "inputs": [
        {
          "name": "_from",
          "type": "address"
        },
        {
          "name": "_ticketId",
          "type": "uint256"
        }
      ],
      "name": "confirmValid",
      "outputs": [],
      "payable": true,
      "stateMutability": "payable",
      "type": "function"
    },
    {
      "constant": false,
      "inputs": [
        {
          "name": "_from",
          "type": "address"
        },
        {
          "name": "_ticketId",
          "type": "uint256"
        }
      ],
      "name": "autoConfirmValid",
      "outputs": [],
      "payable": true,
      "stateMutability": "payable",
      "type": "function"
    },
    {
      "constant": false,
      "inputs": [
        {
          "name": "_newPrice",
          "type": "uint16"
        },
        {
          "name": "_ticketId",
          "type": "uint256"
        }
      ],
      "name": "resell",
      "outputs": [
        {
          "name": "",
          "type": "string"
        },
        {
          "name": "",
          "type": "string"
        },
        {
          "name": "",
          "type": "bool"
        },
        {
          "name": "",
          "type": "uint16"
        }
      ],
      "payable": true,
      "stateMutability": "payable",
      "type": "function"
    }
  ],
  "bytecode": "0x608060405260046000806101000a81548161ffff021916908361ffff16021790555034801561002d57600080fd5b5061246c8061003d6000396000f3fe6080604052600436106100c25760003560e01c806346d474d31161007f57806370a082311161005957806370a0823114610625578063a2836a611461068a578063ea24bd8f146106ef578063fc77386014610754576100c2565b806346d474d31461043557806350b44712146104705780636352211e146105aa576100c2565b8063095ea7b3146100c757806309b5aeb51461011557806323b872dd146102505780633ae1c9d1146102be578063449139ff1461030c578063451452fb1461035a575b600080fd5b610113600480360360408110156100dd57600080fd5b81019080803573ffffffffffffffffffffffffffffffffffffffff16906020019092919080359060200190929190505050610830565b005b61014f6004803603604081101561012b57600080fd5b81019080803561ffff16906020019092919080359060200190929190505050610a72565b604051808060200180602001851515151581526020018461ffff1661ffff168152602001838103835287818151815260200191508051906020019080838360005b838110156101ab578082015181840152602081019050610190565b50505050905090810190601f1680156101d85780820380516001836020036101000a031916815260200191505b50838103825286818151815260200191508051906020019080838360005b838110156102115780820151818401526020810190506101f6565b50505050905090810190601f16801561023e5780820380516001836020036101000a031916815260200191505b50965050505050505060405180910390f35b6102bc6004803603606081101561026657600080fd5b81019080803573ffffffffffffffffffffffffffffffffffffffff169060200190929190803573ffffffffffffffffffffffffffffffffffffffff16906020019092919080359060200190929190505050610da5565b005b61030a600480360360408110156102d457600080fd5b81019080803573ffffffffffffffffffffffffffffffffffffffff1690602001909291908035906020019092919050505061130d565b005b6103586004803603604081101561032257600080fd5b81019080803573ffffffffffffffffffffffffffffffffffffffff169060200190929190803590602001909291905050506115c8565b005b34801561036657600080fd5b506104336004803603604081101561037d57600080fd5b810190808035906020019064010000000081111561039a57600080fd5b8201836020820111156103ac57600080fd5b803590602001918460018302840111640100000000831117156103ce57600080fd5b9091929391929390803590602001906401000000008111156103ef57600080fd5b82018360208201111561040157600080fd5b8035906020019184600183028401116401000000008311171561042357600080fd5b9091929391929390505050611983565b005b34801561044157600080fd5b5061046e6004803603602081101561045857600080fd5b8101908080359060200190929190505050611ba6565b005b34801561047c57600080fd5b506104a96004803603602081101561049357600080fd5b8101908080359060200190929190505050611ca0565b604051808060200180602001851515151581526020018461ffff1661ffff168152602001838103835287818151815260200191508051906020019080838360005b838110156105055780820151818401526020810190506104ea565b50505050905090810190601f1680156105325780820380516001836020036101000a031916815260200191505b50838103825286818151815260200191508051906020019080838360005b8381101561056b578082015181840152602081019050610550565b50505050905090810190601f1680156105985780820380516001836020036101000a031916815260200191505b50965050505050505060405180910390f35b3480156105b657600080fd5b506105e3600480360360208110156105cd57600080fd5b8101908080359060200190929190505050611e28565b604051808273ffffffffffffffffffffffffffffffffffffffff1673ffffffffffffffffffffffffffffffffffffffff16815260200191505060405180910390f35b34801561063157600080fd5b506106746004803603602081101561064857600080fd5b81019080803573ffffffffffffffffffffffffffffffffffffffff169060200190929190505050611e65565b6040518082815260200191505060405180910390f35b34801561069657600080fd5b506106d9600480360360208110156106ad57600080fd5b81019080803573ffffffffffffffffffffffffffffffffffffffff169060200190929190505050611ec0565b6040518082815260200191505060405180910390f35b3480156106fb57600080fd5b5061073e6004803603602081101561071257600080fd5b81019080803573ffffffffffffffffffffffffffffffffffffffff169060200190929190505050611ed8565b6040518082815260200191505060405180910390f35b61082e6004803603606081101561076a57600080fd5b810190808035906020019064010000000081111561078757600080fd5b82018360208201111561079957600080fd5b803590602001918460018302840111640100000000831117156107bb57600080fd5b9091929391929390803590602001906401000000008111156107dc57600080fd5b8201836020820111156107ee57600080fd5b8035906020019184600183028401116401000000008311171561081057600080fd5b9091929391929390803561ffff169060200190929190505050611ef0565b005b803373ffffffffffffffffffffffffffffffffffffffff166004600083815260200190815260200160002060009054906101000a900473ffffffffffffffffffffffffffffffffffffffff1673ffffffffffffffffffffffffffffffffffffffff1614610905576040517f08c379a00000000000000000000000000000000000000000000000000000000081526004018080602001828103825260198152602001807f596f7520646f6e2774206f776e20746865207469636b65742e0000000000000081525060200191505060405180910390fd5b600115156002838154811061091657fe5b906000526020600020906003020160020160009054906101000a900460ff1615151461098d576040517f08c379a00000000000000000000000000000000000000000000000000000000081526004018080602001828103825260298152602001806123f76029913960400191505060405180910390fd5b826006600084815260200190815260200160002060006101000a81548173ffffffffffffffffffffffffffffffffffffffff021916908373ffffffffffffffffffffffffffffffffffffffff160217905550818373ffffffffffffffffffffffffffffffffffffffff166004600085815260200190815260200160002060009054906101000a900473ffffffffffffffffffffffffffffffffffffffff1673ffffffffffffffffffffffffffffffffffffffff167f8c5be1e5ebec7d5bd14f71427d1e84f3dd0314c0f7b2291e5b200ac8c7c3b92560405160405180910390a4505050565b606080600080843373ffffffffffffffffffffffffffffffffffffffff166004600083815260200190815260200160002060009054906101000a900473ffffffffffffffffffffffffffffffffffffffff1673ffffffffffffffffffffffffffffffffffffffff1614610b4d576040517f08c379a00000000000000000000000000000000000000000000000000000000081526004018080602001828103825260198152602001807f596f7520646f6e2774206f776e20746865207469636b65742e0000000000000081525060200191505060405180910390fd5b610b5687612268565b600160028781548110610b6557fe5b906000526020600020906003020160020160006101000a81548160ff0219169083151502179055508660028781548110610b9b57fe5b906000526020600020906003020160020160016101000a81548161ffff021916908361ffff16021790555060028681548110610bd357fe5b906000526020600020906003020160000160028781548110610bf157fe5b906000526020600020906003020160010160028881548110610c0f57fe5b906000526020600020906003020160020160009054906101000a900460ff1660028981548110610c3b57fe5b906000526020600020906003020160020160019054906101000a900461ffff16838054600181600116156101000203166002900480601f016020809104026020016040519081016040528092919081815260200182805460018160011615610100020316600290048015610cf05780601f10610cc557610100808354040283529160200191610cf0565b820191906000526020600020905b815481529060010190602001808311610cd357829003601f168201915b50505050509350828054600181600116156101000203166002900480601f016020809104026020016040519081016040528092919081815260200182805460018160011615610100020316600290048015610d8c5780601f10610d6157610100808354040283529160200191610d8c565b820191906000526020600020905b815481529060010190602001808311610d6f57829003601f168201915b5050505050925094509450945094505092959194509250565b806004600082815260200190815260200160002060009054906101000a900473ffffffffffffffffffffffffffffffffffffffff1673ffffffffffffffffffffffffffffffffffffffff163373ffffffffffffffffffffffffffffffffffffffff161415610e7b576040517f08c379a00000000000000000000000000000000000000000000000000000000081526004018080602001828103825260168152602001807f596f7520617265206e6f74207468652062757965722e0000000000000000000081525060200191505060405180910390fd5b8273ffffffffffffffffffffffffffffffffffffffff166006600084815260200190815260200160002060009054906101000a900473ffffffffffffffffffffffffffffffffffffffff1673ffffffffffffffffffffffffffffffffffffffff1614610f4f576040517f08c379a00000000000000000000000000000000000000000000000000000000081526004018080602001828103825260158152602001807f596f7520617265206e6f7420617070726f7665642e000000000000000000000081525060200191505060405180910390fd5b670de0b6b3a764000060028381548110610f6557fe5b906000526020600020906003020160020160019054906101000a900461ffff1661ffff160267ffffffffffffffff163414611008576040517f08c379a00000000000000000000000000000000000000000000000000000000081526004018080602001828103825260118152602001807f4e6f7420656e6f756768206d6f6e65792e00000000000000000000000000000081525060200191505060405180910390fd5b826004600084815260200190815260200160002060006101000a81548173ffffffffffffffffffffffffffffffffffffffff021916908373ffffffffffffffffffffffffffffffffffffffff160217905550600560008573ffffffffffffffffffffffffffffffffffffffff1673ffffffffffffffffffffffffffffffffffffffff168152602001908152602001600020600081819054906101000a900461ffff16809291906001900391906101000a81548161ffff021916908361ffff16021790555050600560008473ffffffffffffffffffffffffffffffffffffffff1673ffffffffffffffffffffffffffffffffffffffff168152602001908152602001600020600081819054906101000a900461ffff168092919060010191906101000a81548161ffff021916908361ffff1602179055505060006002838154811061114e57fe5b906000526020600020906003020160020160006101000a81548160ff0219169083151502179055506000809054906101000a900461ffff1661ffff16670de0b6b3a7640000600284815481106111a057fe5b906000526020600020906003020160020160019054906101000a900461ffff1661ffff160267ffffffffffffffff16816111d657fe5b0467ffffffffffffffff16600760008673ffffffffffffffffffffffffffffffffffffffff1673ffffffffffffffffffffffffffffffffffffffff16815260200190815260200160002081905550670de0b6b3a76400006002838154811061123a57fe5b906000526020600020906003020160020160019054906101000a900461ffff1661ffff160267ffffffffffffffff16600860008673ffffffffffffffffffffffffffffffffffffffff1673ffffffffffffffffffffffffffffffffffffffff16815260200190815260200160002081905550818373ffffffffffffffffffffffffffffffffffffffff168573ffffffffffffffffffffffffffffffffffffffff167fddf252ad1be2c89b69c2b068fc378daa952ba7f163c4a11628f55a4df523b3ef60405160405180910390a450505050565b6000600860008473ffffffffffffffffffffffffffffffffffffffff1673ffffffffffffffffffffffffffffffffffffffff16815260200190815260200160002054116113a5576040517f08c379a00000000000000000000000000000000000000000000000000000000081526004018080602001828103825260298152602001806123ad6029913960400191505060405180910390fd5b620d2f006009600083815260200190815260200160002054014211611432576040517f08c379a00000000000000000000000000000000000000000000000000000000081526004018080602001828103825260188152602001807f596f75206e65656420746f2077616974206c6f6e6765722e000000000000000081525060200191505060405180910390fd5b8173ffffffffffffffffffffffffffffffffffffffff166108fc600860008573ffffffffffffffffffffffffffffffffffffffff1673ffffffffffffffffffffffffffffffffffffffff168152602001908152602001600020549081150290604051600060405180830381858888f193505050501580156114b7573d6000803e3d6000fd5b508173ffffffffffffffffffffffffffffffffffffffff166108fc600760008573ffffffffffffffffffffffffffffffffffffffff1673ffffffffffffffffffffffffffffffffffffffff168152602001908152602001600020549081150290604051600060405180830381858888f1935050505015801561153d573d6000803e3d6000fd5b50600860008373ffffffffffffffffffffffffffffffffffffffff1673ffffffffffffffffffffffffffffffffffffffff16815260200190815260200160002060009055600760008373ffffffffffffffffffffffffffffffffffffffff1673ffffffffffffffffffffffffffffffffffffffff168152602001908152602001600020600090555050565b803373ffffffffffffffffffffffffffffffffffffffff166004600083815260200190815260200160002060009054906101000a900473ffffffffffffffffffffffffffffffffffffffff1673ffffffffffffffffffffffffffffffffffffffff161461169d576040517f08c379a00000000000000000000000000000000000000000000000000000000081526004018080602001828103825260198152602001807f596f7520646f6e2774206f776e20746865207469636b65742e0000000000000081525060200191505060405180910390fd5b6000600860008573ffffffffffffffffffffffffffffffffffffffff1673ffffffffffffffffffffffffffffffffffffffff1681526020019081526020016000205411611735576040517f08c379a00000000000000000000000000000000000000000000000000000000081526004018080602001828103825260298152602001806123ad6029913960400191505060405180910390fd5b6004600083815260200190815260200160002060009054906101000a900473ffffffffffffffffffffffffffffffffffffffff1673ffffffffffffffffffffffffffffffffffffffff163373ffffffffffffffffffffffffffffffffffffffff16146117ec576040517f08c379a00000000000000000000000000000000000000000000000000000000081526004018080602001828103825260218152602001806123d66021913960400191505060405180910390fd5b8273ffffffffffffffffffffffffffffffffffffffff166108fc600860008673ffffffffffffffffffffffffffffffffffffffff1673ffffffffffffffffffffffffffffffffffffffff168152602001908152602001600020549081150290604051600060405180830381858888f19350505050158015611871573d6000803e3d6000fd5b508273ffffffffffffffffffffffffffffffffffffffff166108fc600760008673ffffffffffffffffffffffffffffffffffffffff1673ffffffffffffffffffffffffffffffffffffffff168152602001908152602001600020549081150290604051600060405180830381858888f193505050501580156118f7573d6000803e3d6000fd5b50600860008473ffffffffffffffffffffffffffffffffffffffff1673ffffffffffffffffffffffffffffffffffffffff16815260200190815260200160002060009055600760008473ffffffffffffffffffffffffffffffffffffffff1673ffffffffffffffffffffffffffffffffffffffff16815260200190815260200160002060009055505050565b6000600160405180606001604052803373ffffffffffffffffffffffffffffffffffffffff16815260200187878080601f016020809104026020016040519081016040528093929190818152602001838380828437600081840152601f19601f82011690508083019250505050505050815260200185858080601f016020809104026020016040519081016040528093929190818152602001838380828437600081840152601f19601f820116905080830192505050505050508152509080600181540180825580915050906001820390600052602060002090600302016000909192909190915060008201518160000160006101000a81548173ffffffffffffffffffffffffffffffffffffffff021916908373ffffffffffffffffffffffffffffffffffffffff1602179055506020820151816001019080519060200190611ace929190612307565b506040820151816002019080519060200190611aeb929190612307565b505050905080600360003373ffffffffffffffffffffffffffffffffffffffff1673ffffffffffffffffffffffffffffffffffffffff168152602001908152602001600020819055508282604051808383808284378083019250505092505050604051809103902085856040518083838082843780830192505050925050506040518091039020827fcf1b833fef0dd6469e0f14043729c162c22e5bb3f69e07c6140c37456936dfe660405160405180910390a45050505050565b803373ffffffffffffffffffffffffffffffffffffffff166004600083815260200190815260200160002060009054906101000a900473ffffffffffffffffffffffffffffffffffffffff1673ffffffffffffffffffffffffffffffffffffffff1614611c7b576040517f08c379a00000000000000000000000000000000000000000000000000000000081526004018080602001828103825260198152602001807f596f7520646f6e2774206f776e20746865207469636b65742e0000000000000081525060200191505060405180910390fd5b42600a81905550600a5460096000848152602001908152602001600020819055505050565b60028181548110611cad57fe5b9060005260206000209060030201600091509050806000018054600181600116156101000203166002900480601f016020809104026020016040519081016040528092919081815260200182805460018160011615610100020316600290048015611d595780601f10611d2e57610100808354040283529160200191611d59565b820191906000526020600020905b815481529060010190602001808311611d3c57829003601f168201915b505050505090806001018054600181600116156101000203166002900480601f016020809104026020016040519081016040528092919081815260200182805460018160011615610100020316600290048015611df75780601f10611dcc57610100808354040283529160200191611df7565b820191906000526020600020905b815481529060010190602001808311611dda57829003601f168201915b5050505050908060020160009054906101000a900460ff16908060020160019054906101000a900461ffff16905084565b60006004600083815260200190815260200160002060009054906101000a900473ffffffffffffffffffffffffffffffffffffffff169050919050565b6000600560008373ffffffffffffffffffffffffffffffffffffffff1673ffffffffffffffffffffffffffffffffffffffff16815260200190815260200160002060009054906101000a900461ffff1661ffff169050919050565b60076020528060005260406000206000915090505481565b60086020528060005260406000206000915090505481565b6000600360003373ffffffffffffffffffffffffffffffffffffffff1673ffffffffffffffffffffffffffffffffffffffff1681526020019081526020016000205411611fa5576040517f08c379a000000000000000000000000000000000000000000000000000000000815260040180806020018281038252601f8152602001807f506c656173652063726561746520616e206163636f756e742066697273742e0081525060200191505060405180910390fd5b611fae81612268565b600060016002604051806080016040528089898080601f016020809104026020016040519081016040528093929190818152602001838380828437600081840152601f19601f82011690508083019250505050505050815260200187878080601f016020809104026020016040519081016040528093929190818152602001838380828437600081840152601f19601f8201169050808301925050505050505081526020016001151581526020018561ffff168152509080600181540180825580915050906001820390600052602060002090600302016000909192909190915060008201518160000190805190602001906120ab929190612307565b5060208201518160010190805190602001906120c8929190612307565b5060408201518160020160006101000a81548160ff02191690831515021790555060608201518160020160016101000a81548161ffff021916908361ffff1602179055505050039050336004600083815260200190815260200160002060006101000a81548173ffffffffffffffffffffffffffffffffffffffff021916908373ffffffffffffffffffffffffffffffffffffffff160217905550600560003373ffffffffffffffffffffffffffffffffffffffff1673ffffffffffffffffffffffffffffffffffffffff168152602001908152602001600020600081819054906101000a900461ffff168092919060010191906101000a81548161ffff021916908361ffff160217905550508383604051808383808284378083019250505092505050604051809103902086866040518083838082843780830192505050925050506040518091039020827f6924bf0cc8a2846033b9edf2278bf346a9151e76d614a1e976939db8343d172d60018660405180831515151581526020018261ffff1661ffff1681526020019250505060405180910390a4505050505050565b60008060009054906101000a900461ffff1661ffff16670de0b6b3a76400008361ffff160267ffffffffffffffff168161229e57fe5b0467ffffffffffffffff169050803414612303576040517f08c379a00000000000000000000000000000000000000000000000000000000081526004018080602001828103825260218152602001806124206021913960400191505060405180910390fd5b5050565b828054600181600116156101000203166002900490600052602060002090601f016020900481019282601f1061234857805160ff1916838001178555612376565b82800160010185558215612376579182015b8281111561237557825182559160200191906001019061235a565b5b5090506123839190612387565b5090565b6123a991905b808211156123a557600081600090555060010161238d565b5090565b9056fe5468657265206973206e6f2070656e64696e67206d6f6e657920746f2062652072656365697665642e596f7520646964206e6f742070757263686173652074686973207469636b65742e54686973207469636b6574204944206973206e6f7420617661696c61626c6520666f722073616c652e596f7572207374616b696e6720616d6f756e7420697320696e636f72726563742ea165627a7a72305820385ab4d99a0c437fa3b970d624584ce19a92fc47105a13b28c593adb25d5dd7b0029",
  "source": "pragma solidity >=0.4.21 <0.6.0;\r\n\r\nimport \"./TicketCreation.sol\";\r\nimport \"./erc721.sol\";\r\n\r\ncontract TicketTransfer is TicketCreation, ERC721 {\r\n\r\n    event Transfer(address indexed _from, address indexed _to, uint256 indexed _ticketId);\r\n    event Approval(address indexed _owner, address indexed _approved, uint256 indexed _ticketId);\r\n\r\n    mapping (address => uint256) public addressToPendingStake; /* Mapping of seller address to staked amount */\r\n    mapping (address => uint256) public addressToPendingPrice; /* Mapping of seller address to ticket price */\r\n    mapping (uint256 => uint256) ticketToDeliveryDate; /* Mapping of bought ticks to delivery date */\r\n\r\n    uint256 date;\r\n\r\n    /* This modifier does not allow the msg.sender to be the seller */\r\n    modifier notSeller(uint256 _ticketId){\r\n        require(msg.sender != ticketsToOwner[_ticketId], \"You are not the buyer.\");\r\n        _;\r\n    }\r\n\r\n    /* This modifier requires the ticket holder to be msg.sender */\r\n    modifier ownsTicket(uint256 _ticketId){\r\n        require(ticketsToOwner[_ticketId] == msg.sender, \"You don't own the ticket.\");\r\n        _;\r\n    }\r\n\r\n    function balanceOf(address _owner) external view returns (uint256){\r\n        return ownerToQuantity[_owner];\r\n    }\r\n\r\n    function ownerOf(uint256 _ticketId) external view returns (address){\r\n        return ticketsToOwner[_ticketId];\r\n    }\r\n\r\n    function approve(address _approved, uint256 _ticketId) external payable ownsTicket(_ticketId){\r\n        require(tickets[_ticketId].available == true, \"This ticket ID is not available for sale.\");\r\n        approvedBuyers[_ticketId] = _approved;\r\n        emit Approval(ticketsToOwner[_ticketId], _approved, _ticketId);\r\n    }\r\n\r\n    function transferFrom(address _from, address _to, uint256 _ticketId) external payable notSeller(_ticketId) {\r\n        require(approvedBuyers[_ticketId] == _to, \"You are not approved.\");\r\n        require(msg.value == (tickets[_ticketId].price)*1 ether, \"Not enough money.\"); /* Requires buyer to pay the price of ticket */\r\n        ticketsToOwner[_ticketId] = _to;\r\n        ownerToQuantity[_from]--;\r\n        ownerToQuantity[_to]++;\r\n        tickets[_ticketId].available = false;\r\n        addressToPendingStake[_from] = ((tickets[_ticketId].price)*1 ether)/stakingFactor;\r\n        addressToPendingPrice[_from] = (tickets[_ticketId].price)*1 ether;\r\n        emit Transfer(_from, _to, _ticketId);\r\n    }\r\n\r\n    function confirmDeliveredDate(uint256 _ticketId) external ownsTicket(_ticketId) {\r\n        date = now;\r\n        ticketToDeliveryDate[_ticketId] = date;\r\n    }\r\n\r\n    /* Below function is called by buyer when ticket is received and confirmed valid by buyer */\r\n    function confirmValid(address payable _from, uint256 _ticketId) public payable ownsTicket(_ticketId) {\r\n        require(addressToPendingPrice[_from] > 0, \"There is no pending money to be received.\"); /* Requires there to be unreleased money */\r\n        require(msg.sender == ticketsToOwner[_ticketId], \"You did not purchase this ticket.\"); /* Only the buyer can confirm ticket validity */\r\n        _from.transfer(addressToPendingPrice[_from]); /* Price gets released to seller after buyer confirmation*/\r\n        _from.transfer(addressToPendingStake[_from]); /* Stake gets released to seller after buyer confirmation*/\r\n        delete(addressToPendingPrice[_from]); /* Removes the item from mapping, gas refund */\r\n        delete(addressToPendingStake[_from]); /* Removes the item from mapping, gas refund */\r\n    }\r\n\r\n    /* Below function can be called by seller when ticket is not confirmed by buyer within 14 days of delivery */\r\n    function autoConfirmValid(address payable _from, uint256 _ticketId) public payable {\r\n        require(addressToPendingPrice[_from] > 0, \"There is no pending money to be received.\"); /* Requires there to be unreleased money */\r\n        require(now > (ticketToDeliveryDate[_ticketId] + 10 days), \"You need to wait longer.\"); /* Requires more than 14 days */\r\n        _from.transfer(addressToPendingPrice[_from]); /* Price gets released to seller after auto confirmation */\r\n        _from.transfer(addressToPendingStake[_from]); /* Stake gets released to seller after auto confirmation */\r\n        delete(addressToPendingPrice[_from]); /* Removes the item from mapping, gas refund */\r\n        delete(addressToPendingStake[_from]); /* Removes the item from mapping, gas refund */\r\n    }\r\n\r\n    /* ADD FUNCTION FOR REFUND IF INVALID TICKET */\r\n\r\n    /* Below function is called when the buyer wants to resell the ticket after purchase */\r\n    function resell(uint16 _newPrice, uint256 _ticketId) external payable ownsTicket (_ticketId) returns(string memory, string memory, bool, uint16){\r\n        staking(_newPrice);\r\n        tickets[_ticketId].available = true; /* As the ticket is being resold, it becomes available for sale */\r\n        tickets[_ticketId].price = _newPrice; /* New price is set for the ticket */\r\n        return (tickets[_ticketId].eventName, tickets[_ticketId].description, tickets[_ticketId].available, tickets[_ticketId].price);\r\n    }\r\n}",
  "sourcePath": "D:/Ethereum practice/Ticket-Exchange-Dapp/contracts/TicketTransfer(ERC721).sol",
  "compiler": {
    "name": "solc",
    "version": "0.5.8+commit.23d335f2.Emscripten.clang"
  },
  "schemaVersion": "3.0.11",
  "updatedAt": "2019-07-31T16:18:33.707Z",
  "devdoc": {
    "methods": {}
  },
  "userdoc": {
    "methods": {}
  }
}