{
  "contractName": "TicketTransfer",
  "abi": [
    {
      "constant": false,
      "inputs": [
        {
          "name": "_firstName",
          "type": "string"
        },
        {
          "name": "_lastName",
          "type": "string"
        }
      ],
      "name": "accountCreation",
      "outputs": [],
      "payable": false,
      "stateMutability": "nonpayable",
      "type": "function"
    },
    {
      "constant": true,
      "inputs": [
        {
          "name": "",
          "type": "uint256"
        }
      ],
      "name": "tickets",
      "outputs": [
        {
          "name": "eventName",
          "type": "string"
        },
        {
          "name": "description",
          "type": "string"
        },
        {
          "name": "price",
          "type": "uint16"
        }
      ],
      "payable": false,
      "stateMutability": "view",
      "type": "function"
    },
    {
      "constant": false,
      "inputs": [
        {
          "name": "_eventName",
          "type": "string"
        },
        {
          "name": "_description",
          "type": "string"
        },
        {
          "name": "_price",
          "type": "uint16"
        }
      ],
      "name": "createTicket",
      "outputs": [],
      "payable": false,
      "stateMutability": "nonpayable",
      "type": "function"
    },
    {
      "inputs": [],
      "payable": false,
      "stateMutability": "nonpayable",
      "type": "constructor"
    },
    {
      "anonymous": false,
      "inputs": [
        {
          "indexed": true,
          "name": "_from",
          "type": "address"
        },
        {
          "indexed": true,
          "name": "_to",
          "type": "address"
        },
        {
          "indexed": true,
          "name": "_ticketId",
          "type": "uint256"
        }
      ],
      "name": "Transfer",
      "type": "event"
    },
    {
      "anonymous": false,
      "inputs": [
        {
          "indexed": true,
          "name": "_owner",
          "type": "address"
        },
        {
          "indexed": true,
          "name": "_approved",
          "type": "address"
        },
        {
          "indexed": true,
          "name": "_ticketId",
          "type": "uint256"
        }
      ],
      "name": "Approval",
      "type": "event"
    },
    {
      "anonymous": false,
      "inputs": [
        {
          "indexed": true,
          "name": "userId",
          "type": "uint256"
        },
        {
          "indexed": false,
          "name": "firstName",
          "type": "string"
        },
        {
          "indexed": false,
          "name": "lastName",
          "type": "string"
        }
      ],
      "name": "NewAccount",
      "type": "event"
    },
    {
      "anonymous": false,
      "inputs": [
        {
          "indexed": true,
          "name": "ticketId",
          "type": "uint256"
        },
        {
          "indexed": false,
          "name": "eventName",
          "type": "string"
        },
        {
          "indexed": false,
          "name": "description",
          "type": "string"
        },
        {
          "indexed": false,
          "name": "price",
          "type": "uint16"
        }
      ],
      "name": "NewTicket",
      "type": "event"
    },
    {
      "constant": true,
      "inputs": [],
      "name": "getContractDeployer",
      "outputs": [
        {
          "name": "",
          "type": "address"
        }
      ],
      "payable": false,
      "stateMutability": "view",
      "type": "function"
    },
    {
      "constant": true,
      "inputs": [],
      "name": "getTicketCount",
      "outputs": [
        {
          "name": "",
          "type": "uint256"
        }
      ],
      "payable": false,
      "stateMutability": "view",
      "type": "function"
    },
    {
      "constant": true,
      "inputs": [
        {
          "name": "_owner",
          "type": "address"
        }
      ],
      "name": "balanceOf",
      "outputs": [
        {
          "name": "",
          "type": "uint256"
        }
      ],
      "payable": false,
      "stateMutability": "view",
      "type": "function"
    },
    {
      "constant": true,
      "inputs": [
        {
          "name": "_ticketId",
          "type": "uint256"
        }
      ],
      "name": "ownerOf",
      "outputs": [
        {
          "name": "",
          "type": "address"
        }
      ],
      "payable": false,
      "stateMutability": "view",
      "type": "function"
    },
    {
      "constant": false,
      "inputs": [
        {
          "name": "_from",
          "type": "address"
        },
        {
          "name": "_to",
          "type": "address"
        },
        {
          "name": "_ticketId",
          "type": "uint256"
        }
      ],
      "name": "transferFrom",
      "outputs": [],
      "payable": true,
      "stateMutability": "payable",
      "type": "function"
    },
    {
      "constant": false,
      "inputs": [
        {
          "name": "_approved",
          "type": "address"
        },
        {
          "name": "_ticketId",
          "type": "uint256"
        }
      ],
      "name": "approve",
      "outputs": [],
      "payable": true,
      "stateMutability": "payable",
      "type": "function"
    },
    {
      "constant": true,
      "inputs": [
        {
          "name": "_ticketId",
          "type": "uint256"
        }
      ],
      "name": "getApprovedBuyer",
      "outputs": [
        {
          "name": "",
          "type": "address"
        }
      ],
      "payable": false,
      "stateMutability": "view",
      "type": "function"
    },
    {
      "constant": false,
      "inputs": [
        {
          "name": "_to",
          "type": "address"
        },
        {
          "name": "_ticketId",
          "type": "uint256"
        }
      ],
      "name": "resell",
      "outputs": [],
      "payable": true,
      "stateMutability": "payable",
      "type": "function"
    }
  ],
  "bytecode": "0x608060405234801561001057600080fd5b5033600560006101000a81548173ffffffffffffffffffffffffffffffffffffffff021916908373ffffffffffffffffffffffffffffffffffffffff1602179055506119c0806100616000396000f3fe60806040526004361061009c5760003560e01c8063451452fb11610064578063451452fb1461022d57806350b44712146103085780636352211e1461043757806370a08231146104b2578063d0a8160914610517578063fc773860146105925761009c565b8063095ea7b3146100a157806321c63a47146100ef57806323b872dd1461011a5780633502dcf21461018857806336500213146101d6575b600080fd5b6100ed600480360360408110156100b757600080fd5b81019080803573ffffffffffffffffffffffffffffffffffffffff1690602001909291908035906020019092919050505061067b565b005b3480156100fb57600080fd5b50610104610907565b6040518082815260200191505060405180910390f35b6101866004803603606081101561013057600080fd5b81019080803573ffffffffffffffffffffffffffffffffffffffff169060200190929190803573ffffffffffffffffffffffffffffffffffffffff16906020019092919080359060200190929190505050610914565b005b6101d46004803603604081101561019e57600080fd5b81019080803573ffffffffffffffffffffffffffffffffffffffff16906020019092919080359060200190929190505050610d7b565b005b3480156101e257600080fd5b506101eb611162565b604051808273ffffffffffffffffffffffffffffffffffffffff1673ffffffffffffffffffffffffffffffffffffffff16815260200191505060405180910390f35b34801561023957600080fd5b506103066004803603604081101561025057600080fd5b810190808035906020019064010000000081111561026d57600080fd5b82018360208201111561027f57600080fd5b803590602001918460018302840111640100000000831117156102a157600080fd5b9091929391929390803590602001906401000000008111156102c257600080fd5b8201836020820111156102d457600080fd5b803590602001918460018302840111640100000000831117156102f657600080fd5b909192939192939050505061118c565b005b34801561031457600080fd5b506103416004803603602081101561032b57600080fd5b8101908080359060200190929190505050611343565b6040518080602001806020018461ffff1661ffff168152602001838103835286818151815260200191508051906020019080838360005b83811015610393578082015181840152602081019050610378565b50505050905090810190601f1680156103c05780820380516001836020036101000a031916815260200191505b50838103825285818151815260200191508051906020019080838360005b838110156103f95780820151818401526020810190506103de565b50505050905090810190601f1680156104265780820380516001836020036101000a031916815260200191505b509550505050505060405180910390f35b34801561044357600080fd5b506104706004803603602081101561045a57600080fd5b81019080803590602001909291905050506114b8565b604051808273ffffffffffffffffffffffffffffffffffffffff1673ffffffffffffffffffffffffffffffffffffffff16815260200191505060405180910390f35b3480156104be57600080fd5b50610501600480360360208110156104d557600080fd5b81019080803573ffffffffffffffffffffffffffffffffffffffff1690602001909291905050506114f5565b6040518082815260200191505060405180910390f35b34801561052357600080fd5b506105506004803603602081101561053a57600080fd5b8101908080359060200190929190505050611550565b604051808273ffffffffffffffffffffffffffffffffffffffff1673ffffffffffffffffffffffffffffffffffffffff16815260200191505060405180910390f35b34801561059e57600080fd5b50610679600480360360608110156105b557600080fd5b81019080803590602001906401000000008111156105d257600080fd5b8201836020820111156105e457600080fd5b8035906020019184600183028401116401000000008311171561060657600080fd5b90919293919293908035906020019064010000000081111561062757600080fd5b82018360208201111561063957600080fd5b8035906020019184600183028401116401000000008311171561065b57600080fd5b9091929391929390803561ffff16906020019092919050505061158d565b005b806003600082815260200190815260200160002060009054906101000a900473ffffffffffffffffffffffffffffffffffffffff1673ffffffffffffffffffffffffffffffffffffffff163373ffffffffffffffffffffffffffffffffffffffff161415610751576040517f08c379a00000000000000000000000000000000000000000000000000000000081526004018080602001828103825260168152602001807f596f7520617265206e6f74207468652062757965722e0000000000000000000081525060200191505060405180910390fd5b670de0b6b3a76400006001838154811061076757fe5b906000526020600020906003020160020160009054906101000a900461ffff1661ffff160267ffffffffffffffff16341461080a576040517f08c379a00000000000000000000000000000000000000000000000000000000081526004018080602001828103825260118152602001807f4e6f7420656e6f756768206d6f6e65792e00000000000000000000000000000081525060200191505060405180910390fd5b826007600084815260200190815260200160002060006101000a81548173ffffffffffffffffffffffffffffffffffffffff021916908373ffffffffffffffffffffffffffffffffffffffff160217905550346006600084815260200190815260200160002081905550818373ffffffffffffffffffffffffffffffffffffffff166003600085815260200190815260200160002060009054906101000a900473ffffffffffffffffffffffffffffffffffffffff1673ffffffffffffffffffffffffffffffffffffffff167f8c5be1e5ebec7d5bd14f71427d1e84f3dd0314c0f7b2291e5b200ac8c7c3b92560405160405180910390a4505050565b6000600180549050905090565b806003600082815260200190815260200160002060009054906101000a900473ffffffffffffffffffffffffffffffffffffffff1673ffffffffffffffffffffffffffffffffffffffff163373ffffffffffffffffffffffffffffffffffffffff1614156109ea576040517f08c379a00000000000000000000000000000000000000000000000000000000081526004018080602001828103825260168152602001807f596f7520617265206e6f74207468652062757965722e0000000000000000000081525060200191505060405180910390fd5b670de0b6b3a764000060018381548110610a0057fe5b906000526020600020906003020160020160009054906101000a900461ffff1661ffff160267ffffffffffffffff163414610aa3576040517f08c379a00000000000000000000000000000000000000000000000000000000081526004018080602001828103825260118152602001807f4e6f7420656e6f756768206d6f6e65792e00000000000000000000000000000081525060200191505060405180910390fd5b6000600260008573ffffffffffffffffffffffffffffffffffffffff1673ffffffffffffffffffffffffffffffffffffffff1681526020019081526020016000205411610b58576040517f08c379a000000000000000000000000000000000000000000000000000000000815260040180806020018281038252601f8152602001807f506c656173652063726561746520616e206163636f756e742066697273742e0081525060200191505060405180910390fd5b8373ffffffffffffffffffffffffffffffffffffffff166108fc670de0b6b3a764000060018581548110610b8857fe5b906000526020600020906003020160020160009054906101000a900461ffff1661ffff160267ffffffffffffffff169081150290604051600060405180830381858888f19350505050158015610be2573d6000803e3d6000fd5b50826003600084815260200190815260200160002060006101000a81548173ffffffffffffffffffffffffffffffffffffffff021916908373ffffffffffffffffffffffffffffffffffffffff160217905550600460008573ffffffffffffffffffffffffffffffffffffffff1673ffffffffffffffffffffffffffffffffffffffff168152602001908152602001600020600081819054906101000a900461ffff16809291906001900391906101000a81548161ffff021916908361ffff16021790555050600460008473ffffffffffffffffffffffffffffffffffffffff1673ffffffffffffffffffffffffffffffffffffffff168152602001908152602001600020600081819054906101000a900461ffff168092919060010191906101000a81548161ffff021916908361ffff16021790555050818373ffffffffffffffffffffffffffffffffffffffff168573ffffffffffffffffffffffffffffffffffffffff167fddf252ad1be2c89b69c2b068fc378daa952ba7f163c4a11628f55a4df523b3ef60405160405180910390a450505050565b803373ffffffffffffffffffffffffffffffffffffffff166003600083815260200190815260200160002060009054906101000a900473ffffffffffffffffffffffffffffffffffffffff1673ffffffffffffffffffffffffffffffffffffffff1614610e50576040517f08c379a00000000000000000000000000000000000000000000000000000000081526004018080602001828103825260198152602001807f596f7520646f6e2774206f776e20746865207469636b65742e0000000000000081525060200191505060405180910390fd5b8273ffffffffffffffffffffffffffffffffffffffff166007600084815260200190815260200160002060009054906101000a900473ffffffffffffffffffffffffffffffffffffffff1673ffffffffffffffffffffffffffffffffffffffff1614610f24576040517f08c379a000000000000000000000000000000000000000000000000000000000815260040180806020018281038252601e8152602001807f54686973206973206e6f7420616e20617070726f7665642062757965722e000081525060200191505060405180910390fd5b3373ffffffffffffffffffffffffffffffffffffffff166108fc60066000858152602001908152602001600020549081150290604051600060405180830381858888f19350505050158015610f7d573d6000803e3d6000fd5b5060066000838152602001908152602001600020600090556007600083815260200190815260200160002060006101000a81549073ffffffffffffffffffffffffffffffffffffffff0219169055826003600084815260200190815260200160002060006101000a81548173ffffffffffffffffffffffffffffffffffffffff021916908373ffffffffffffffffffffffffffffffffffffffff160217905550600460003373ffffffffffffffffffffffffffffffffffffffff1673ffffffffffffffffffffffffffffffffffffffff168152602001908152602001600020600081819054906101000a900461ffff16809291906001900391906101000a81548161ffff021916908361ffff16021790555050600460008473ffffffffffffffffffffffffffffffffffffffff1673ffffffffffffffffffffffffffffffffffffffff168152602001908152602001600020600081819054906101000a900461ffff168092919060010191906101000a81548161ffff021916908361ffff16021790555050818373ffffffffffffffffffffffffffffffffffffffff163373ffffffffffffffffffffffffffffffffffffffff167fddf252ad1be2c89b69c2b068fc378daa952ba7f163c4a11628f55a4df523b3ef60405160405180910390a4505050565b6000600560009054906101000a900473ffffffffffffffffffffffffffffffffffffffff16905090565b60008060405180606001604052803373ffffffffffffffffffffffffffffffffffffffff16815260200187878080601f016020809104026020016040519081016040528093929190818152602001838380828437600081840152601f19601f82011690508083019250505050505050815260200185858080601f016020809104026020016040519081016040528093929190818152602001838380828437600081840152601f19601f820116905080830192505050505050508152509080600181540180825580915050906001820390600052602060002090600302016000909192909190915060008201518160000160006101000a81548173ffffffffffffffffffffffffffffffffffffffff021916908373ffffffffffffffffffffffffffffffffffffffff16021790555060208201518160010190805190602001906112d69291906118ef565b5060408201518160020190805190602001906112f39291906118ef565b505050905080600260003373ffffffffffffffffffffffffffffffffffffffff1673ffffffffffffffffffffffffffffffffffffffff168152602001908152602001600020819055505050505050565b6001818154811061135057fe5b9060005260206000209060030201600091509050806000018054600181600116156101000203166002900480601f0160208091040260200160405190810160405280929190818152602001828054600181600116156101000203166002900480156113fc5780601f106113d1576101008083540402835291602001916113fc565b820191906000526020600020905b8154815290600101906020018083116113df57829003601f168201915b505050505090806001018054600181600116156101000203166002900480601f01602080910402602001604051908101604052809291908181526020018280546001816001161561010002031660029004801561149a5780601f1061146f5761010080835404028352916020019161149a565b820191906000526020600020905b81548152906001019060200180831161147d57829003601f168201915b5050505050908060020160009054906101000a900461ffff16905083565b60006003600083815260200190815260200160002060009054906101000a900473ffffffffffffffffffffffffffffffffffffffff169050919050565b6000600460008373ffffffffffffffffffffffffffffffffffffffff1673ffffffffffffffffffffffffffffffffffffffff16815260200190815260200160002060009054906101000a900461ffff1661ffff169050919050565b60006007600083815260200190815260200160002060009054906101000a900473ffffffffffffffffffffffffffffffffffffffff169050919050565b6000600260003373ffffffffffffffffffffffffffffffffffffffff1673ffffffffffffffffffffffffffffffffffffffff1681526020019081526020016000205411611642576040517f08c379a000000000000000000000000000000000000000000000000000000000815260040180806020018281038252601f8152602001807f506c656173652063726561746520616e206163636f756e742066697273742e0081525060200191505060405180910390fd5b6000600180604051806060016040528089898080601f016020809104026020016040519081016040528093929190818152602001838380828437600081840152601f19601f82011690508083019250505050505050815260200187878080601f016020809104026020016040519081016040528093929190818152602001838380828437600081840152601f19601f8201169050808301925050505050505081526020018561ffff168152509080600181540180825580915050906001820390600052602060002090600302016000909192909190915060008201518160000190805190602001906117359291906118ef565b5060208201518160010190805190602001906117529291906118ef565b5060408201518160020160006101000a81548161ffff021916908361ffff1602179055505050039050336003600083815260200190815260200160002060006101000a81548173ffffffffffffffffffffffffffffffffffffffff021916908373ffffffffffffffffffffffffffffffffffffffff160217905550600460003373ffffffffffffffffffffffffffffffffffffffff1673ffffffffffffffffffffffffffffffffffffffff168152602001908152602001600020600081819054906101000a900461ffff168092919060010191906101000a81548161ffff021916908361ffff16021790555050807f30fd0064a7e492200adf5fd4ba1664a117c669d42f877207c2e7966e572f235687878787876040518080602001806020018461ffff1661ffff1681526020018381038352888882818152602001925080828437600081840152601f19601f8201169050808301925050508381038252868682818152602001925080828437600081840152601f19601f82011690508083019250505097505050505050505060405180910390a2505050505050565b828054600181600116156101000203166002900490600052602060002090601f016020900481019282601f1061193057805160ff191683800117855561195e565b8280016001018555821561195e579182015b8281111561195d578251825591602001919060010190611942565b5b50905061196b919061196f565b5090565b61199191905b8082111561198d576000816000905550600101611975565b5090565b9056fea165627a7a72305820977f12510e697b19bff4ba1c3aebca2dcace5d6d422459b42740c07adafc76f70029",
  "source": "pragma solidity >=0.4.21 <0.6.0;\r\n\r\nimport \"./TicketCreation_simplified.sol\";\r\nimport \"./erc721.sol\";\r\n\r\ncontract TicketTransfer is TicketCreation, ERC721 {\r\n    address contractDeployer;\r\n\r\n    constructor() public {\r\n        contractDeployer = msg.sender;\r\n\r\n        // tickets.push(Ticket({eventName:\"Event1\", description:\"Description1\", price:1}));\r\n        // tickets.push(Ticket({eventName:\"Event2\", description:\"Description2\", price:2}));\r\n        // tickets.push(Ticket({eventName:\"Event3\", description:\"Description3\", price:3}));\r\n        // tickets.push(Ticket({eventName:\"Event4\", description:\"Description4\", price:1}));\r\n        // tickets.push(Ticket({eventName:\"Event5\", description:\"Description5\", price:2}));\r\n        // tickets.push(Ticket({eventName:\"Event6\", description:\"Description6\", price:3}));\r\n        // tickets.push(Ticket({eventName:\"Event7\", description:\"Description7\", price:4}));\r\n\r\n        // for (uint i = 0; i < 7; i++) {\r\n        //     ticketsToOwner[i] = msg.sender;\r\n        //     ownerToQuantity[msg.sender]++;\r\n        // }\r\n    }\r\n\r\n    event Transfer(address indexed _from, address indexed _to, uint256 indexed _ticketId);\r\n    event Approval(address indexed _owner, address indexed _approved, uint256 indexed _ticketId);\r\n\r\n    mapping (uint256 => uint256) ticketIdToPending;\r\n    mapping (uint256 => address) approvedBuyers;\r\n\r\n    /* This modifier does not allow the msg.sender to be the seller */\r\n    modifier notSeller(uint256 _ticketId){\r\n        require(msg.sender != ticketsToOwner[_ticketId], \"You are not the buyer.\");\r\n        _;\r\n    }\r\n\r\n    /* This modifier requires the ticket holder to be msg.sender */\r\n    modifier ownsTicket(uint256 _ticketId){\r\n        require(ticketsToOwner[_ticketId] == msg.sender, \"You don't own the ticket.\");\r\n        _;\r\n    }\r\n\r\n    function getContractDeployer() public view returns (address) {\r\n        return contractDeployer;\r\n    }\r\n\r\n    function getTicketCount() public view returns (uint256) {\r\n        return tickets.length;\r\n    }\r\n    \r\n    function balanceOf(address _owner) external view returns (uint256){\r\n        return ownerToQuantity[_owner];\r\n    }\r\n\r\n    function ownerOf(uint256 _ticketId) external view returns (address){\r\n        return ticketsToOwner[_ticketId];\r\n    }\r\n\r\n    /* 1st TIME PURCHASE FROM PLATFORM - this is called when 1st time buyer presses the 'Purchase' button */\r\n    function transferFrom(address payable _from, address _to, uint256 _ticketId) external payable notSeller(_ticketId) {\r\n        require(msg.value == (tickets[_ticketId].price)*1 ether, \"Not enough money.\"); /* Requires buyer to pay the price of ticket */\r\n        require(adToUserId[_to] > 0, \"Please create an account first.\"); /* Requires user to have an account */\r\n        _from.transfer((tickets[_ticketId].price)*1 ether);\r\n        ticketsToOwner[_ticketId] = _to;\r\n        ownerToQuantity[_from]--;\r\n        ownerToQuantity[_to]++;\r\n        emit Transfer(_from, _to, _ticketId);\r\n    }\r\n\r\n    /* SECONDARY MARKET - a person looking to resell his/her ticket can only sell to a willing/approved buyer. This function is called by buyer. */\r\n    function approve(address _approved, uint256 _ticketId) external payable notSeller(_ticketId){\r\n        require(msg.value == (tickets[_ticketId].price)*1 ether, \"Not enough money.\"); /* Requires buyer to pay the price of ticket */\r\n        approvedBuyers[_ticketId] = _approved; /* Buyer approves him/herself for the ticket, goes into the approved buyer mapping */\r\n        ticketIdToPending[_ticketId] = msg.value; /* Buyer's money gets stored in the contract, so we store it in a temp mapping */\r\n        emit Approval(ticketsToOwner[_ticketId], _approved, _ticketId);\r\n    }\r\n\r\n    /* Returning the approved buyer's address of a particular ticket ID */\r\n    function getApprovedBuyer(uint256 _ticketId) external view returns(address){\r\n        return approvedBuyers[_ticketId];\r\n    }\r\n\r\n    /* SECONDARY MARKET - after the buyer is approved, seller presses 'Sell' button, and then the ticket's ownership gets transferred. Seller also gets money from contract. */\r\n    function resell(address _to, uint256 _ticketId) external payable ownsTicket(_ticketId) {\r\n        require(approvedBuyers[_ticketId] == _to, \"This is not an approved buyer.\"); /* Requires the transferee to be an approved buyer for the ticket */\r\n        msg.sender.transfer(ticketIdToPending[_ticketId]); /* Money gets transferred from contract to seller */\r\n        delete(ticketIdToPending[_ticketId]); /* Can be deleted as the mapping is no longer needed */\r\n        delete(approvedBuyers[_ticketId]); /* Can be deleted as the mapping is no longer needed */\r\n        ticketsToOwner[_ticketId] = _to;\r\n        ownerToQuantity[msg.sender]--;\r\n        ownerToQuantity[_to]++;\r\n        emit Transfer(msg.sender, _to, _ticketId);\r\n    }\r\n\r\n}",
  "sourcePath": "D:/Ethereum practice/Ticket-Exchange-Dapp/contracts/TicketTransfer_simplified.sol",
  "compiler": {
    "name": "solc",
    "version": "0.5.8+commit.23d335f2.Emscripten.clang"
  },
  "schemaVersion": "3.0.11",
  "updatedAt": "2019-08-03T19:42:55.197Z",
  "devdoc": {
    "methods": {}
  },
  "userdoc": {
    "methods": {}
  }
}