{
  "contractName": "TicketTransfer",
  "abi": [
    {
      "constant": false,
      "inputs": [
        {
          "name": "_firstName",
          "type": "string"
        },
        {
          "name": "_lastName",
          "type": "string"
        }
      ],
      "name": "accountCreation",
      "outputs": [],
      "payable": false,
      "stateMutability": "nonpayable",
      "type": "function"
    },
    {
      "constant": true,
      "inputs": [
        {
          "name": "",
          "type": "uint256"
        }
      ],
      "name": "tickets",
      "outputs": [
        {
          "name": "eventName",
          "type": "string"
        },
        {
          "name": "description",
          "type": "string"
        },
        {
          "name": "price",
          "type": "uint16"
        }
      ],
      "payable": false,
      "stateMutability": "view",
      "type": "function"
    },
    {
      "constant": false,
      "inputs": [
        {
          "name": "_eventName",
          "type": "string"
        },
        {
          "name": "_description",
          "type": "string"
        },
        {
          "name": "_price",
          "type": "uint16"
        }
      ],
      "name": "createTicket",
      "outputs": [],
      "payable": false,
      "stateMutability": "nonpayable",
      "type": "function"
    },
    {
      "inputs": [],
      "payable": false,
      "stateMutability": "nonpayable",
      "type": "constructor"
    },
    {
      "anonymous": false,
      "inputs": [
        {
          "indexed": true,
          "name": "_from",
          "type": "address"
        },
        {
          "indexed": true,
          "name": "_to",
          "type": "address"
        },
        {
          "indexed": true,
          "name": "_ticketId",
          "type": "uint256"
        }
      ],
      "name": "Transfer",
      "type": "event"
    },
    {
      "anonymous": false,
      "inputs": [
        {
          "indexed": true,
          "name": "_owner",
          "type": "address"
        },
        {
          "indexed": true,
          "name": "_approved",
          "type": "address"
        },
        {
          "indexed": true,
          "name": "_ticketId",
          "type": "uint256"
        }
      ],
      "name": "Approval",
      "type": "event"
    },
    {
      "anonymous": false,
      "inputs": [
        {
          "indexed": true,
          "name": "userId",
          "type": "uint256"
        },
        {
          "indexed": false,
          "name": "firstName",
          "type": "string"
        },
        {
          "indexed": false,
          "name": "lastName",
          "type": "string"
        }
      ],
      "name": "NewAccount",
      "type": "event"
    },
    {
      "anonymous": false,
      "inputs": [
        {
          "indexed": true,
          "name": "ticketId",
          "type": "uint256"
        },
        {
          "indexed": false,
          "name": "eventName",
          "type": "string"
        },
        {
          "indexed": false,
          "name": "description",
          "type": "string"
        },
        {
          "indexed": false,
          "name": "price",
          "type": "uint16"
        }
      ],
      "name": "NewTicket",
      "type": "event"
    },
    {
      "constant": true,
      "inputs": [],
      "name": "getContractDeployer",
      "outputs": [
        {
          "name": "",
          "type": "address"
        }
      ],
      "payable": false,
      "stateMutability": "view",
      "type": "function"
    },
    {
      "constant": true,
      "inputs": [],
      "name": "getTicketCount",
      "outputs": [
        {
          "name": "",
          "type": "uint256"
        }
      ],
      "payable": false,
      "stateMutability": "view",
      "type": "function"
    },
    {
      "constant": true,
      "inputs": [
        {
          "name": "_owner",
          "type": "address"
        }
      ],
      "name": "balanceOf",
      "outputs": [
        {
          "name": "",
          "type": "uint256"
        }
      ],
      "payable": false,
      "stateMutability": "view",
      "type": "function"
    },
    {
      "constant": true,
      "inputs": [
        {
          "name": "_ticketId",
          "type": "uint256"
        }
      ],
      "name": "ownerOf",
      "outputs": [
        {
          "name": "",
          "type": "address"
        }
      ],
      "payable": false,
      "stateMutability": "view",
      "type": "function"
    },
    {
      "constant": false,
      "inputs": [
        {
          "name": "_from",
          "type": "address"
        },
        {
          "name": "_to",
          "type": "address"
        },
        {
          "name": "_ticketId",
          "type": "uint256"
        }
      ],
      "name": "transferFrom",
      "outputs": [],
      "payable": true,
      "stateMutability": "payable",
      "type": "function"
    },
    {
      "constant": false,
      "inputs": [
        {
          "name": "_approved",
          "type": "address"
        },
        {
          "name": "_ticketId",
          "type": "uint256"
        }
      ],
      "name": "approve",
      "outputs": [],
      "payable": true,
      "stateMutability": "payable",
      "type": "function"
    },
    {
      "constant": true,
      "inputs": [
        {
          "name": "_ticketId",
          "type": "uint256"
        }
      ],
      "name": "getApprovedBuyer",
      "outputs": [
        {
          "name": "",
          "type": "address"
        }
      ],
      "payable": false,
      "stateMutability": "view",
      "type": "function"
    },
    {
      "constant": false,
      "inputs": [
        {
          "name": "_to",
          "type": "address"
        },
        {
          "name": "_ticketId",
          "type": "uint256"
        }
      ],
      "name": "resell",
      "outputs": [],
      "payable": true,
      "stateMutability": "payable",
      "type": "function"
    }
  ],
  "bytecode": "0x60806040523480156200001157600080fd5b5033600560006101000a81548173ffffffffffffffffffffffffffffffffffffffff021916908373ffffffffffffffffffffffffffffffffffffffff160217905550600160405180606001604052806040518060400160405280600681526020017f4576656e7431000000000000000000000000000000000000000000000000000081525081526020016040518060400160405280600c81526020017f4465736372697074696f6e3100000000000000000000000000000000000000008152508152602001600161ffff1681525090806001815401808255809150509060018203906000526020600020906003020160009091929091909150600082015181600001908051906020019062000128929190620008f9565b50602082015181600101908051906020019062000147929190620008f9565b5060408201518160020160006101000a81548161ffff021916908361ffff160217905550505050600160405180606001604052806040518060400160405280600681526020017f4576656e7432000000000000000000000000000000000000000000000000000081525081526020016040518060400160405280600c81526020017f4465736372697074696f6e3200000000000000000000000000000000000000008152508152602001600261ffff1681525090806001815401808255809150509060018203906000526020600020906003020160009091929091909150600082015181600001908051906020019062000243929190620008f9565b50602082015181600101908051906020019062000262929190620008f9565b5060408201518160020160006101000a81548161ffff021916908361ffff160217905550505050600160405180606001604052806040518060400160405280600681526020017f4576656e7433000000000000000000000000000000000000000000000000000081525081526020016040518060400160405280600c81526020017f4465736372697074696f6e3300000000000000000000000000000000000000008152508152602001600361ffff168152509080600181540180825580915050906001820390600052602060002090600302016000909192909190915060008201518160000190805190602001906200035e929190620008f9565b5060208201518160010190805190602001906200037d929190620008f9565b5060408201518160020160006101000a81548161ffff021916908361ffff160217905550505050600160405180606001604052806040518060400160405280600681526020017f4576656e7434000000000000000000000000000000000000000000000000000081525081526020016040518060400160405280600c81526020017f4465736372697074696f6e3400000000000000000000000000000000000000008152508152602001600161ffff1681525090806001815401808255809150509060018203906000526020600020906003020160009091929091909150600082015181600001908051906020019062000479929190620008f9565b50602082015181600101908051906020019062000498929190620008f9565b5060408201518160020160006101000a81548161ffff021916908361ffff160217905550505050600160405180606001604052806040518060400160405280600681526020017f4576656e7435000000000000000000000000000000000000000000000000000081525081526020016040518060400160405280600c81526020017f4465736372697074696f6e3500000000000000000000000000000000000000008152508152602001600261ffff1681525090806001815401808255809150509060018203906000526020600020906003020160009091929091909150600082015181600001908051906020019062000594929190620008f9565b506020820151816001019080519060200190620005b3929190620008f9565b5060408201518160020160006101000a81548161ffff021916908361ffff160217905550505050600160405180606001604052806040518060400160405280600681526020017f4576656e7436000000000000000000000000000000000000000000000000000081525081526020016040518060400160405280600c81526020017f4465736372697074696f6e3600000000000000000000000000000000000000008152508152602001600361ffff16815250908060018154018082558091505090600182039060005260206000209060030201600090919290919091506000820151816000019080519060200190620006af929190620008f9565b506020820151816001019080519060200190620006ce929190620008f9565b5060408201518160020160006101000a81548161ffff021916908361ffff160217905550505050600160405180606001604052806040518060400160405280600681526020017f4576656e7437000000000000000000000000000000000000000000000000000081525081526020016040518060400160405280600c81526020017f4465736372697074696f6e3700000000000000000000000000000000000000008152508152602001600461ffff16815250908060018154018082558091505090600182039060005260206000209060030201600090919290919091506000820151816000019080519060200190620007ca929190620008f9565b506020820151816001019080519060200190620007e9929190620008f9565b5060408201518160020160006101000a81548161ffff021916908361ffff16021790555050505060008090505b6007811015620008f257336003600083815260200190815260200160002060006101000a81548173ffffffffffffffffffffffffffffffffffffffff021916908373ffffffffffffffffffffffffffffffffffffffff160217905550600460003373ffffffffffffffffffffffffffffffffffffffff1673ffffffffffffffffffffffffffffffffffffffff168152602001908152602001600020600081819054906101000a900461ffff168092919060010191906101000a81548161ffff021916908361ffff16021790555050808060010191505062000816565b50620009a8565b828054600181600116156101000203166002900490600052602060002090601f016020900481019282601f106200093c57805160ff19168380011785556200096d565b828001600101855582156200096d579182015b828111156200096c5782518255916020019190600101906200094f565b5b5090506200097c919062000980565b5090565b620009a591905b80821115620009a157600081600090555060010162000987565b5090565b90565b611a5880620009b86000396000f3fe60806040526004361061009c5760003560e01c8063451452fb11610064578063451452fb1461022d57806350b44712146103085780636352211e1461043757806370a08231146104b2578063d0a8160914610517578063fc773860146105925761009c565b8063095ea7b3146100a157806321c63a47146100ef57806323b872dd1461011a5780633502dcf21461018857806336500213146101d6575b600080fd5b6100ed600480360360408110156100b757600080fd5b81019080803573ffffffffffffffffffffffffffffffffffffffff1690602001909291908035906020019092919050505061067b565b005b3480156100fb57600080fd5b50610104610907565b6040518082815260200191505060405180910390f35b6101866004803603606081101561013057600080fd5b81019080803573ffffffffffffffffffffffffffffffffffffffff169060200190929190803573ffffffffffffffffffffffffffffffffffffffff16906020019092919080359060200190929190505050610914565b005b6101d46004803603604081101561019e57600080fd5b81019080803573ffffffffffffffffffffffffffffffffffffffff16906020019092919080359060200190929190505050610d7b565b005b3480156101e257600080fd5b506101eb611162565b604051808273ffffffffffffffffffffffffffffffffffffffff1673ffffffffffffffffffffffffffffffffffffffff16815260200191505060405180910390f35b34801561023957600080fd5b506103066004803603604081101561025057600080fd5b810190808035906020019064010000000081111561026d57600080fd5b82018360208201111561027f57600080fd5b803590602001918460018302840111640100000000831117156102a157600080fd5b9091929391929390803590602001906401000000008111156102c257600080fd5b8201836020820111156102d457600080fd5b803590602001918460018302840111640100000000831117156102f657600080fd5b909192939192939050505061118c565b005b34801561031457600080fd5b506103416004803603602081101561032b57600080fd5b81019080803590602001909291905050506113db565b6040518080602001806020018461ffff1661ffff168152602001838103835286818151815260200191508051906020019080838360005b83811015610393578082015181840152602081019050610378565b50505050905090810190601f1680156103c05780820380516001836020036101000a031916815260200191505b50838103825285818151815260200191508051906020019080838360005b838110156103f95780820151818401526020810190506103de565b50505050905090810190601f1680156104265780820380516001836020036101000a031916815260200191505b509550505050505060405180910390f35b34801561044357600080fd5b506104706004803603602081101561045a57600080fd5b8101908080359060200190929190505050611550565b604051808273ffffffffffffffffffffffffffffffffffffffff1673ffffffffffffffffffffffffffffffffffffffff16815260200191505060405180910390f35b3480156104be57600080fd5b50610501600480360360208110156104d557600080fd5b81019080803573ffffffffffffffffffffffffffffffffffffffff16906020019092919050505061158d565b6040518082815260200191505060405180910390f35b34801561052357600080fd5b506105506004803603602081101561053a57600080fd5b81019080803590602001909291905050506115e8565b604051808273ffffffffffffffffffffffffffffffffffffffff1673ffffffffffffffffffffffffffffffffffffffff16815260200191505060405180910390f35b34801561059e57600080fd5b50610679600480360360608110156105b557600080fd5b81019080803590602001906401000000008111156105d257600080fd5b8201836020820111156105e457600080fd5b8035906020019184600183028401116401000000008311171561060657600080fd5b90919293919293908035906020019064010000000081111561062757600080fd5b82018360208201111561063957600080fd5b8035906020019184600183028401116401000000008311171561065b57600080fd5b9091929391929390803561ffff169060200190929190505050611625565b005b806003600082815260200190815260200160002060009054906101000a900473ffffffffffffffffffffffffffffffffffffffff1673ffffffffffffffffffffffffffffffffffffffff163373ffffffffffffffffffffffffffffffffffffffff161415610751576040517f08c379a00000000000000000000000000000000000000000000000000000000081526004018080602001828103825260168152602001807f596f7520617265206e6f74207468652062757965722e0000000000000000000081525060200191505060405180910390fd5b670de0b6b3a76400006001838154811061076757fe5b906000526020600020906003020160020160009054906101000a900461ffff1661ffff160267ffffffffffffffff16341461080a576040517f08c379a00000000000000000000000000000000000000000000000000000000081526004018080602001828103825260118152602001807f4e6f7420656e6f756768206d6f6e65792e00000000000000000000000000000081525060200191505060405180910390fd5b826007600084815260200190815260200160002060006101000a81548173ffffffffffffffffffffffffffffffffffffffff021916908373ffffffffffffffffffffffffffffffffffffffff160217905550346006600084815260200190815260200160002081905550818373ffffffffffffffffffffffffffffffffffffffff166003600085815260200190815260200160002060009054906101000a900473ffffffffffffffffffffffffffffffffffffffff1673ffffffffffffffffffffffffffffffffffffffff167f8c5be1e5ebec7d5bd14f71427d1e84f3dd0314c0f7b2291e5b200ac8c7c3b92560405160405180910390a4505050565b6000600180549050905090565b806003600082815260200190815260200160002060009054906101000a900473ffffffffffffffffffffffffffffffffffffffff1673ffffffffffffffffffffffffffffffffffffffff163373ffffffffffffffffffffffffffffffffffffffff1614156109ea576040517f08c379a00000000000000000000000000000000000000000000000000000000081526004018080602001828103825260168152602001807f596f7520617265206e6f74207468652062757965722e0000000000000000000081525060200191505060405180910390fd5b670de0b6b3a764000060018381548110610a0057fe5b906000526020600020906003020160020160009054906101000a900461ffff1661ffff160267ffffffffffffffff163414610aa3576040517f08c379a00000000000000000000000000000000000000000000000000000000081526004018080602001828103825260118152602001807f4e6f7420656e6f756768206d6f6e65792e00000000000000000000000000000081525060200191505060405180910390fd5b6000600260008573ffffffffffffffffffffffffffffffffffffffff1673ffffffffffffffffffffffffffffffffffffffff1681526020019081526020016000205411610b58576040517f08c379a000000000000000000000000000000000000000000000000000000000815260040180806020018281038252601f8152602001807f506c656173652063726561746520616e206163636f756e742066697273742e0081525060200191505060405180910390fd5b8373ffffffffffffffffffffffffffffffffffffffff166108fc670de0b6b3a764000060018581548110610b8857fe5b906000526020600020906003020160020160009054906101000a900461ffff1661ffff160267ffffffffffffffff169081150290604051600060405180830381858888f19350505050158015610be2573d6000803e3d6000fd5b50826003600084815260200190815260200160002060006101000a81548173ffffffffffffffffffffffffffffffffffffffff021916908373ffffffffffffffffffffffffffffffffffffffff160217905550600460008573ffffffffffffffffffffffffffffffffffffffff1673ffffffffffffffffffffffffffffffffffffffff168152602001908152602001600020600081819054906101000a900461ffff16809291906001900391906101000a81548161ffff021916908361ffff16021790555050600460008473ffffffffffffffffffffffffffffffffffffffff1673ffffffffffffffffffffffffffffffffffffffff168152602001908152602001600020600081819054906101000a900461ffff168092919060010191906101000a81548161ffff021916908361ffff16021790555050818373ffffffffffffffffffffffffffffffffffffffff168573ffffffffffffffffffffffffffffffffffffffff167fddf252ad1be2c89b69c2b068fc378daa952ba7f163c4a11628f55a4df523b3ef60405160405180910390a450505050565b803373ffffffffffffffffffffffffffffffffffffffff166003600083815260200190815260200160002060009054906101000a900473ffffffffffffffffffffffffffffffffffffffff1673ffffffffffffffffffffffffffffffffffffffff1614610e50576040517f08c379a00000000000000000000000000000000000000000000000000000000081526004018080602001828103825260198152602001807f596f7520646f6e2774206f776e20746865207469636b65742e0000000000000081525060200191505060405180910390fd5b8273ffffffffffffffffffffffffffffffffffffffff166007600084815260200190815260200160002060009054906101000a900473ffffffffffffffffffffffffffffffffffffffff1673ffffffffffffffffffffffffffffffffffffffff1614610f24576040517f08c379a000000000000000000000000000000000000000000000000000000000815260040180806020018281038252601e8152602001807f54686973206973206e6f7420616e20617070726f7665642062757965722e000081525060200191505060405180910390fd5b3373ffffffffffffffffffffffffffffffffffffffff166108fc60066000858152602001908152602001600020549081150290604051600060405180830381858888f19350505050158015610f7d573d6000803e3d6000fd5b5060066000838152602001908152602001600020600090556007600083815260200190815260200160002060006101000a81549073ffffffffffffffffffffffffffffffffffffffff0219169055826003600084815260200190815260200160002060006101000a81548173ffffffffffffffffffffffffffffffffffffffff021916908373ffffffffffffffffffffffffffffffffffffffff160217905550600460003373ffffffffffffffffffffffffffffffffffffffff1673ffffffffffffffffffffffffffffffffffffffff168152602001908152602001600020600081819054906101000a900461ffff16809291906001900391906101000a81548161ffff021916908361ffff16021790555050600460008473ffffffffffffffffffffffffffffffffffffffff1673ffffffffffffffffffffffffffffffffffffffff168152602001908152602001600020600081819054906101000a900461ffff168092919060010191906101000a81548161ffff021916908361ffff16021790555050818373ffffffffffffffffffffffffffffffffffffffff163373ffffffffffffffffffffffffffffffffffffffff167fddf252ad1be2c89b69c2b068fc378daa952ba7f163c4a11628f55a4df523b3ef60405160405180910390a4505050565b6000600560009054906101000a900473ffffffffffffffffffffffffffffffffffffffff16905090565b60008060405180606001604052803373ffffffffffffffffffffffffffffffffffffffff16815260200187878080601f016020809104026020016040519081016040528093929190818152602001838380828437600081840152601f19601f82011690508083019250505050505050815260200185858080601f016020809104026020016040519081016040528093929190818152602001838380828437600081840152601f19601f820116905080830192505050505050508152509080600181540180825580915050906001820390600052602060002090600302016000909192909190915060008201518160000160006101000a81548173ffffffffffffffffffffffffffffffffffffffff021916908373ffffffffffffffffffffffffffffffffffffffff16021790555060208201518160010190805190602001906112d6929190611987565b5060408201518160020190805190602001906112f3929190611987565b505050905080600260003373ffffffffffffffffffffffffffffffffffffffff1673ffffffffffffffffffffffffffffffffffffffff16815260200190815260200160002081905550807fcf1b833fef0dd6469e0f14043729c162c22e5bb3f69e07c6140c37456936dfe6868686866040518080602001806020018381038352878782818152602001925080828437600081840152601f19601f8201169050808301925050508381038252858582818152602001925080828437600081840152601f19601f820116905080830192505050965050505050505060405180910390a25050505050565b600181815481106113e857fe5b9060005260206000209060030201600091509050806000018054600181600116156101000203166002900480601f0160208091040260200160405190810160405280929190818152602001828054600181600116156101000203166002900480156114945780601f1061146957610100808354040283529160200191611494565b820191906000526020600020905b81548152906001019060200180831161147757829003601f168201915b505050505090806001018054600181600116156101000203166002900480601f0160208091040260200160405190810160405280929190818152602001828054600181600116156101000203166002900480156115325780601f1061150757610100808354040283529160200191611532565b820191906000526020600020905b81548152906001019060200180831161151557829003601f168201915b5050505050908060020160009054906101000a900461ffff16905083565b60006003600083815260200190815260200160002060009054906101000a900473ffffffffffffffffffffffffffffffffffffffff169050919050565b6000600460008373ffffffffffffffffffffffffffffffffffffffff1673ffffffffffffffffffffffffffffffffffffffff16815260200190815260200160002060009054906101000a900461ffff1661ffff169050919050565b60006007600083815260200190815260200160002060009054906101000a900473ffffffffffffffffffffffffffffffffffffffff169050919050565b6000600260003373ffffffffffffffffffffffffffffffffffffffff1673ffffffffffffffffffffffffffffffffffffffff16815260200190815260200160002054116116da576040517f08c379a000000000000000000000000000000000000000000000000000000000815260040180806020018281038252601f8152602001807f506c656173652063726561746520616e206163636f756e742066697273742e0081525060200191505060405180910390fd5b6000600180604051806060016040528089898080601f016020809104026020016040519081016040528093929190818152602001838380828437600081840152601f19601f82011690508083019250505050505050815260200187878080601f016020809104026020016040519081016040528093929190818152602001838380828437600081840152601f19601f8201169050808301925050505050505081526020018561ffff168152509080600181540180825580915050906001820390600052602060002090600302016000909192909190915060008201518160000190805190602001906117cd929190611987565b5060208201518160010190805190602001906117ea929190611987565b5060408201518160020160006101000a81548161ffff021916908361ffff1602179055505050039050336003600083815260200190815260200160002060006101000a81548173ffffffffffffffffffffffffffffffffffffffff021916908373ffffffffffffffffffffffffffffffffffffffff160217905550600460003373ffffffffffffffffffffffffffffffffffffffff1673ffffffffffffffffffffffffffffffffffffffff168152602001908152602001600020600081819054906101000a900461ffff168092919060010191906101000a81548161ffff021916908361ffff16021790555050807f30fd0064a7e492200adf5fd4ba1664a117c669d42f877207c2e7966e572f235687878787876040518080602001806020018461ffff1661ffff1681526020018381038352888882818152602001925080828437600081840152601f19601f8201169050808301925050508381038252868682818152602001925080828437600081840152601f19601f82011690508083019250505097505050505050505060405180910390a2505050505050565b828054600181600116156101000203166002900490600052602060002090601f016020900481019282601f106119c857805160ff19168380011785556119f6565b828001600101855582156119f6579182015b828111156119f55782518255916020019190600101906119da565b5b509050611a039190611a07565b5090565b611a2991905b80821115611a25576000816000905550600101611a0d565b5090565b9056fea165627a7a72305820a585e2de09c392beec97ad12f9bab7b6bfc06feccaf0cdebee84ecc7374637060029",
  "source": "pragma solidity >=0.4.21 <0.6.0;\n\nimport \"./TicketCreation_simplified.sol\";\nimport \"./erc721.sol\";\n\ncontract TicketTransfer is TicketCreation, ERC721 {\n    address contractDeployer;\n\n    constructor() public {\n        contractDeployer = msg.sender;\n\n        tickets.push(Ticket({eventName:\"Event1\", description:\"Description1\", price:1}));\n        tickets.push(Ticket({eventName:\"Event2\", description:\"Description2\", price:2}));\n        tickets.push(Ticket({eventName:\"Event3\", description:\"Description3\", price:3}));\n        tickets.push(Ticket({eventName:\"Event4\", description:\"Description4\", price:1}));\n        tickets.push(Ticket({eventName:\"Event5\", description:\"Description5\", price:2}));\n        tickets.push(Ticket({eventName:\"Event6\", description:\"Description6\", price:3}));\n        tickets.push(Ticket({eventName:\"Event7\", description:\"Description7\", price:4}));\n\n        for (uint i = 0; i < 7; i++) {\n            ticketsToOwner[i] = msg.sender;\n            ownerToQuantity[msg.sender]++;\n        }\n    }\n\n    event Transfer(address indexed _from, address indexed _to, uint256 indexed _ticketId);\n    event Approval(address indexed _owner, address indexed _approved, uint256 indexed _ticketId);\n\n    mapping (uint256 => uint256) ticketIdToPending;\n    mapping (uint256 => address) approvedBuyers;\n\n    /* This modifier does not allow the msg.sender to be the seller */\n    modifier notSeller(uint256 _ticketId){\n        require(msg.sender != ticketsToOwner[_ticketId], \"You are not the buyer.\");\n        _;\n    }\n\n    /* This modifier requires the ticket holder to be msg.sender */\n    modifier ownsTicket(uint256 _ticketId){\n        require(ticketsToOwner[_ticketId] == msg.sender, \"You don't own the ticket.\");\n        _;\n    }\n\n    function getContractDeployer() public view returns (address) {\n        return contractDeployer;\n    }\n\n    function getTicketCount() public view returns (uint256) {\n        return tickets.length;\n    }\n    \n    function balanceOf(address _owner) external view returns (uint256){\n        return ownerToQuantity[_owner];\n    }\n\n    function ownerOf(uint256 _ticketId) external view returns (address){\n        return ticketsToOwner[_ticketId];\n    }\n\n    /* 1st TIME PURCHASE FROM PLATFORM - this is called when 1st time buyer presses the 'Purchase' button */\n    function transferFrom(address payable _from, address _to, uint256 _ticketId) external payable notSeller(_ticketId) {\n        require(msg.value == (tickets[_ticketId].price)*1 ether, \"Not enough money.\"); /* Requires buyer to pay the price of ticket */\n        require(adToUserId[_to] > 0, \"Please create an account first.\"); /* Requires user to have an account */\n        _from.transfer((tickets[_ticketId].price)*1 ether);\n        ticketsToOwner[_ticketId] = _to;\n        ownerToQuantity[_from]--;\n        ownerToQuantity[_to]++;\n        emit Transfer(_from, _to, _ticketId);\n    }\n\n    /* SECONDARY MARKET - a person looking to resell his/her ticket can only sell to a willing/approved buyer. This function is called by buyer. */\n    function approve(address _approved, uint256 _ticketId) external payable notSeller(_ticketId){\n        require(msg.value == (tickets[_ticketId].price)*1 ether, \"Not enough money.\"); /* Requires buyer to pay the price of ticket */\n        approvedBuyers[_ticketId] = _approved; /* Buyer approves him/herself for the ticket, goes into the approved buyer mapping */\n        ticketIdToPending[_ticketId] = msg.value; /* Buyer's money gets stored in the contract, so we store it in a temp mapping */\n        emit Approval(ticketsToOwner[_ticketId], _approved, _ticketId);\n    }\n\n    /* Returning the approved buyer's address of a particular ticket ID */\n    function getApprovedBuyer(uint256 _ticketId) external view returns(address){\n        return approvedBuyers[_ticketId];\n    }\n\n    /* SECONDARY MARKET - after the buyer is approved, seller presses 'Sell' button, and then the ticket's ownership gets transferred. Seller also gets money from contract. */\n    function resell(address _to, uint256 _ticketId) external payable ownsTicket(_ticketId) {\n        require(approvedBuyers[_ticketId] == _to, \"This is not an approved buyer.\"); /* Requires the transferee to be an approved buyer for the ticket */\n        msg.sender.transfer(ticketIdToPending[_ticketId]); /* Money gets transferred from contract to seller */\n        delete(ticketIdToPending[_ticketId]); /* Can be deleted as the mapping is no longer needed */\n        delete(approvedBuyers[_ticketId]); /* Can be deleted as the mapping is no longer needed */\n        ticketsToOwner[_ticketId] = _to;\n        ownerToQuantity[msg.sender]--;\n        ownerToQuantity[_to]++;\n        emit Transfer(msg.sender, _to, _ticketId);\n    }\n\n}",
  "sourcePath": "/Users/AaronKo/Desktop/Solidity/TicketExchangeDapp/contracts/TicketTransfer_simplified.sol",
  "compiler": {
    "name": "solc",
    "version": "0.5.8+commit.23d335f2.Emscripten.clang"
  },
  "schemaVersion": "3.0.11",
  "updatedAt": "2019-08-02T20:27:02.767Z",
  "devdoc": {
    "methods": {}
  },
  "userdoc": {
    "methods": {}
  }
}